{"abi":[{"type":"constructor","inputs":[{"name":"_creditCoin","type":"address","internalType":"address"}],"stateMutability":"nonpayable"},{"type":"function","name":"CREDIT_COIN","inputs":[],"outputs":[{"name":"","type":"address","internalType":"contract IERC20"}],"stateMutability":"view"},{"type":"function","name":"depositToMask","inputs":[{"name":"amount","type":"uint256","internalType":"uint256"}],"outputs":[],"stateMutability":"nonpayable"},{"type":"event","name":"MaskedDeposit","inputs":[{"name":"user","type":"address","indexed":true,"internalType":"address"},{"name":"amount","type":"uint256","indexed":false,"internalType":"uint256"}],"anonymous":false},{"type":"error","name":"SafeERC20FailedOperation","inputs":[{"name":"token","type":"address","internalType":"address"}]}],"bytecode":{"object":"0x60a060405234801561000f575f5ffd5b5060405161060938038061060983398181016040528101906100319190610137565b5f73ffffffffffffffffffffffffffffffffffffffff168173ffffffffffffffffffffffffffffffffffffffff160361009f576040517f08c379a0000000000000000000000000000000000000000000000000000000008152600401610096906101bc565b60405180910390fd5b8073ffffffffffffffffffffffffffffffffffffffff1660808173ffffffffffffffffffffffffffffffffffffffff1681525050506101da565b5f5ffd5b5f73ffffffffffffffffffffffffffffffffffffffff82169050919050565b5f610106826100dd565b9050919050565b610116816100fc565b8114610120575f5ffd5b50565b5f815190506101318161010d565b92915050565b5f6020828403121561014c5761014b6100d9565b5b5f61015984828501610123565b91505092915050565b5f82825260208201905092915050565b7f496e76616c6964204343204164647265737300000000000000000000000000005f82015250565b5f6101a6601283610162565b91506101b182610172565b602082019050919050565b5f6020820190508181035f8301526101d38161019a565b9050919050565b6080516104126101f75f395f818160740152609e01526104125ff3fe608060405234801561000f575f5ffd5b5060043610610034575f3560e01c806395ca25e2146100385780639f85389914610056575b5f5ffd5b610040610072565b60405161004d91906102cb565b60405180910390f35b610070600480360381019061006b919061031b565b610096565b005b7f000000000000000000000000000000000000000000000000000000000000000081565b6100e33330837f000000000000000000000000000000000000000000000000000000000000000073ffffffffffffffffffffffffffffffffffffffff16610134909392919063ffffffff16565b3373ffffffffffffffffffffffffffffffffffffffff167fbd78adb2ae5f1f7a90ae7219de4f31d8468d7d785c7e4ea708268776c987ee03826040516101299190610355565b60405180910390a250565b6101b0848573ffffffffffffffffffffffffffffffffffffffff166323b872dd8686866040516024016101699392919061038e565b604051602081830303815290604052915060e01b6020820180517bffffffffffffffffffffffffffffffffffffffffffffffffffffffff83818316178352505050506101b6565b50505050565b5f5f60205f8451602086015f885af1806101d5576040513d5f823e3d81fd5b3d92505f519150505f82146101ee576001811415610209565b5f8473ffffffffffffffffffffffffffffffffffffffff163b145b1561024b57836040517f5274afe700000000000000000000000000000000000000000000000000000000815260040161024291906103c3565b60405180910390fd5b50505050565b5f73ffffffffffffffffffffffffffffffffffffffff82169050919050565b5f819050919050565b5f61029361028e61028984610251565b610270565b610251565b9050919050565b5f6102a482610279565b9050919050565b5f6102b58261029a565b9050919050565b6102c5816102ab565b82525050565b5f6020820190506102de5f8301846102bc565b92915050565b5f5ffd5b5f819050919050565b6102fa816102e8565b8114610304575f5ffd5b50565b5f81359050610315816102f1565b92915050565b5f602082840312156103305761032f6102e4565b5b5f61033d84828501610307565b91505092915050565b61034f816102e8565b82525050565b5f6020820190506103685f830184610346565b92915050565b5f61037882610251565b9050919050565b6103888161036e565b82525050565b5f6060820190506103a15f83018661037f565b6103ae602083018561037f565b6103bb6040830184610346565b949350505050565b5f6020820190506103d65f83018461037f565b9291505056fea26469706673582212209e734c38f9a2de64623337ecd2f6053e152e2c5f0c863e7de049d867c1090a1c64736f6c63430008210033","linkReferences":{}},"methodIdentifiers":{"CREDIT_COIN()":"95ca25e2","depositToMask(uint256)":"9f853899"},"id":6}