{"abi":[{"type":"constructor","inputs":[],"stateMutability":"nonpayable"},{"type":"function","name":"SOVEREIGN_VAULT","inputs":[],"outputs":[{"name":"","type":"address","internalType":"address"}],"stateMutability":"view"},{"type":"function","name":"allowance","inputs":[{"name":"owner","type":"address","internalType":"address"},{"name":"spender","type":"address","internalType":"address"}],"outputs":[{"name":"","type":"uint256","internalType":"uint256"}],"stateMutability":"view"},{"type":"function","name":"approve","inputs":[{"name":"spender","type":"address","internalType":"address"},{"name":"value","type":"uint256","internalType":"uint256"}],"outputs":[{"name":"","type":"bool","internalType":"bool"}],"stateMutability":"nonpayable"},{"type":"function","name":"balanceOf","inputs":[{"name":"account","type":"address","internalType":"address"}],"outputs":[{"name":"","type":"uint256","internalType":"uint256"}],"stateMutability":"view"},{"type":"function","name":"decimals","inputs":[],"outputs":[{"name":"","type":"uint8","internalType":"uint8"}],"stateMutability":"view"},{"type":"function","name":"mintSovereignReward","inputs":[{"name":"to","type":"address","internalType":"address"},{"name":"amount","type":"uint256","internalType":"uint256"}],"outputs":[],"stateMutability":"nonpayable"},{"type":"function","name":"name","inputs":[],"outputs":[{"name":"","type":"string","internalType":"string"}],"stateMutability":"view"},{"type":"function","name":"owner","inputs":[],"outputs":[{"name":"","type":"address","internalType":"address"}],"stateMutability":"view"},{"type":"function","name":"renounceOwnership","inputs":[],"outputs":[],"stateMutability":"nonpayable"},{"type":"function","name":"symbol","inputs":[],"outputs":[{"name":"","type":"string","internalType":"string"}],"stateMutability":"view"},{"type":"function","name":"totalSupply","inputs":[],"outputs":[{"name":"","type":"uint256","internalType":"uint256"}],"stateMutability":"view"},{"type":"function","name":"transfer","inputs":[{"name":"to","type":"address","internalType":"address"},{"name":"value","type":"uint256","internalType":"uint256"}],"outputs":[{"name":"","type":"bool","internalType":"bool"}],"stateMutability":"nonpayable"},{"type":"function","name":"transferFrom","inputs":[{"name":"from","type":"address","internalType":"address"},{"name":"to","type":"address","internalType":"address"},{"name":"value","type":"uint256","internalType":"uint256"}],"outputs":[{"name":"","type":"bool","internalType":"bool"}],"stateMutability":"nonpayable"},{"type":"function","name":"transferOwnership","inputs":[{"name":"newOwner","type":"address","internalType":"address"}],"outputs":[],"stateMutability":"nonpayable"},{"type":"event","name":"Approval","inputs":[{"name":"owner","type":"address","indexed":true,"internalType":"address"},{"name":"spender","type":"address","indexed":true,"internalType":"address"},{"name":"value","type":"uint256","indexed":false,"internalType":"uint256"}],"anonymous":false},{"type":"event","name":"OwnershipTransferred","inputs":[{"name":"previousOwner","type":"address","indexed":true,"internalType":"address"},{"name":"newOwner","type":"address","indexed":true,"internalType":"address"}],"anonymous":false},{"type":"event","name":"Transfer","inputs":[{"name":"from","type":"address","indexed":true,"internalType":"address"},{"name":"to","type":"address","indexed":true,"internalType":"address"},{"name":"value","type":"uint256","indexed":false,"internalType":"uint256"}],"anonymous":false},{"type":"error","name":"ERC20InsufficientAllowance","inputs":[{"name":"spender","type":"address","internalType":"address"},{"name":"allowance","type":"uint256","internalType":"uint256"},{"name":"needed","type":"uint256","internalType":"uint256"}]},{"type":"error","name":"ERC20InsufficientBalance","inputs":[{"name":"sender","type":"address","internalType":"address"},{"name":"balance","type":"uint256","internalType":"uint256"},{"name":"needed","type":"uint256","internalType":"uint256"}]},{"type":"error","name":"ERC20InvalidApprover","inputs":[{"name":"approver","type":"address","internalType":"address"}]},{"type":"error","name":"ERC20InvalidReceiver","inputs":[{"name":"receiver","type":"address","internalType":"address"}]},{"type":"error","name":"ERC20InvalidSender","inputs":[{"name":"sender","type":"address","internalType":"address"}]},{"type":"error","name":"ERC20InvalidSpender","inputs":[{"name":"spender","type":"address","internalType":"address"}]},{"type":"error","name":"OwnableInvalidOwner","inputs":[{"name":"owner","type":"address","internalType":"address"}]},{"type":"error","name":"OwnableUnauthorizedAccount","inputs":[{"name":"account","type":"address","internalType":"address"}]}],"bytecode":{"object":"0x608060405234801561000f575f5ffd5b50336040518060400160405280601381526020017f43726564697420436f696e2050726976617465000000000000000000000000008152506040518060400160405280600281526020017f4343000000000000000000000000000000000000000000000000000000000000815250816003908161008c9190610728565b50806004908161009c9190610728565b5050505f73ffffffffffffffffffffffffffffffffffffffff168173ffffffffffffffffffffffffffffffffffffffff160361010f575f6040517f1e4fbdf70000000000000000000000000000000000000000000000000000000081526004016101069190610836565b60405180910390fd5b61011e8161017160201b60201c565b5061016c734f9595e22a0881b1a13f9ac039b45a3eb56d649761014561023460201b60201c565b600a61015191906109b7565b641faa3b50006101619190610a01565b61023c60201b60201c565b610ad2565b5f60055f9054906101000a900473ffffffffffffffffffffffffffffffffffffffff1690508160055f6101000a81548173ffffffffffffffffffffffffffffffffffffffff021916908373ffffffffffffffffffffffffffffffffffffffff1602179055508173ffffffffffffffffffffffffffffffffffffffff168173ffffffffffffffffffffffffffffffffffffffff167f8be0079c531659141344cd1fd0a4f28419497f9722a3daafe3b4186f6b6457e060405160405180910390a35050565b5f6012905090565b5f73ffffffffffffffffffffffffffffffffffffffff168273ffffffffffffffffffffffffffffffffffffffff16036102ac575f6040517fec442f050000000000000000000000000000000000000000000000000000000081526004016102a39190610836565b60405180910390fd5b6102bd5f83836102c160201b60201c565b5050565b5f73ffffffffffffffffffffffffffffffffffffffff168373ffffffffffffffffffffffffffffffffffffffff1603610311578060025f8282546103059190610a42565b925050819055506103df565b5f5f5f8573ffffffffffffffffffffffffffffffffffffffff1673ffffffffffffffffffffffffffffffffffffffff1681526020019081526020015f205490508181101561039a578381836040517fe450d38c00000000000000000000000000000000000000000000000000000000815260040161039193929190610a84565b60405180910390fd5b8181035f5f8673ffffffffffffffffffffffffffffffffffffffff1673ffffffffffffffffffffffffffffffffffffffff1681526020019081526020015f2081905550505b5f73ffffffffffffffffffffffffffffffffffffffff168273ffffffffffffffffffffffffffffffffffffffff1603610426578060025f8282540392505081905550610470565b805f5f8473ffffffffffffffffffffffffffffffffffffffff1673ffffffffffffffffffffffffffffffffffffffff1681526020019081526020015f205f82825401925050819055505b8173ffffffffffffffffffffffffffffffffffffffff168373ffffffffffffffffffffffffffffffffffffffff167fddf252ad1be2c89b69c2b068fc378daa952ba7f163c4a11628f55a4df523b3ef836040516104cd9190610ab9565b60405180910390a3505050565b5f81519050919050565b7f4e487b71000000000000000000000000000000000000000000000000000000005f52604160045260245ffd5b7f4e487b71000000000000000000000000000000000000000000000000000000005f52602260045260245ffd5b5f600282049050600182168061055557607f821691505b60208210810361056857610567610511565b5b50919050565b5f819050815f5260205f209050919050565b5f6020601f8301049050919050565b5f82821b905092915050565b5f600883026105ca7fffffffffffffffffffffffffffffffffffffffffffffffffffffffffffffffff8261058f565b6105d4868361058f565b95508019841693508086168417925050509392505050565b5f819050919050565b5f819050919050565b5f61061861061361060e846105ec565b6105f5565b6105ec565b9050919050565b5f819050919050565b610631836105fe565b61064561063d8261061f565b84845461059b565b825550505050565b5f5f905090565b61065c61064d565b610667818484610628565b505050565b5f5b8281101561068d576106825f828401610654565b60018101905061066e565b505050565b601f8211156106e057828211156106df576106ac8161056e565b6106b583610580565b6106be85610580565b60208610156106cb575f90505b8083016106da8284038261066c565b505050505b5b505050565b5f82821c905092915050565b5f6107005f19846008026106e5565b1980831691505092915050565b5f61071883836106f1565b9150826002028217905092915050565b610731826104da565b67ffffffffffffffff81111561074a576107496104e4565b5b610754825461053e565b61075f828285610692565b5f60209050601f831160018114610790575f841561077e578287015190505b610788858261070d565b8655506107ef565b601f19841661079e8661056e565b5f5b828110156107c5578489015182556001820191506020850194506020810190506107a0565b868310156107e257848901516107de601f8916826106f1565b8355505b6001600288020188555050505b505050505050565b5f73ffffffffffffffffffffffffffffffffffffffff82169050919050565b5f610820826107f7565b9050919050565b61083081610816565b82525050565b5f6020820190506108495f830184610827565b92915050565b7f4e487b71000000000000000000000000000000000000000000000000000000005f52601160045260245ffd5b5f8160011c9050919050565b5f5f8291508390505b60018511156108d1578086048111156108ad576108ac61084f565b5b60018516156108bc5780820291505b80810290506108ca8561087c565b9450610891565b94509492505050565b5f826108e957600190506109a4565b816108f6575f90506109a4565b816001811461090c576002811461091657610945565b60019150506109a4565b60ff8411156109285761092761084f565b5b8360020a91508482111561093f5761093e61084f565b5b506109a4565b5060208310610133831016604e8410600b841016171561097a5782820a9050838111156109755761097461084f565b5b6109a4565b6109878484846001610888565b9250905081840481111561099e5761099d61084f565b5b81810290505b9392505050565b5f60ff82169050919050565b5f6109c1826105ec565b91506109cc836109ab565b92506109f97fffffffffffffffffffffffffffffffffffffffffffffffffffffffffffffffff84846108da565b905092915050565b5f610a0b826105ec565b9150610a16836105ec565b9250828202610a24816105ec565b91508282048414831517610a3b57610a3a61084f565b5b5092915050565b5f610a4c826105ec565b9150610a57836105ec565b9250828201905080821115610a6f57610a6e61084f565b5b92915050565b610a7e816105ec565b82525050565b5f606082019050610a975f830186610827565b610aa46020830185610a75565b610ab16040830184610a75565b949350505050565b5f602082019050610acc5f830184610a75565b92915050565b61116d80610adf5f395ff3fe608060405234801561000f575f5ffd5b50600436106100e8575f3560e01c8063715018a61161008a578063a9059cbb11610064578063a9059cbb1461023a578063bed9b2671461026a578063dd62ed3e14610286578063f2fde38b146102b6576100e8565b8063715018a6146101f45780638da5cb5b146101fe57806395d89b411461021c576100e8565b806320479cd2116100c657806320479cd21461015857806323b872dd14610176578063313ce567146101a657806370a08231146101c4576100e8565b806306fdde03146100ec578063095ea7b31461010a57806318160ddd1461013a575b5f5ffd5b6100f46102d2565b6040516101019190610de6565b60405180910390f35b610124600480360381019061011f9190610e97565b610362565b6040516101319190610eef565b60405180910390f35b610142610384565b60405161014f9190610f17565b60405180910390f35b61016061038d565b60405161016d9190610f3f565b60405180910390f35b610190600480360381019061018b9190610f58565b6103a5565b60405161019d9190610eef565b60405180910390f35b6101ae6103d3565b6040516101bb9190610fc3565b60405180910390f35b6101de60048036038101906101d99190610fdc565b6103db565b6040516101eb9190610f17565b60405180910390f35b6101fc610420565b005b610206610433565b6040516102139190610f3f565b60405180910390f35b61022461045b565b6040516102319190610de6565b60405180910390f35b610254600480360381019061024f9190610e97565b6104eb565b6040516102619190610eef565b60405180910390f35b610284600480360381019061027f9190610e97565b61050d565b005b6102a0600480360381019061029b9190611007565b610523565b6040516102ad9190610f17565b60405180910390f35b6102d060048036038101906102cb9190610fdc565b6105a5565b005b6060600380546102e190611072565b80601f016020809104026020016040519081016040528092919081815260200182805461030d90611072565b80156103585780601f1061032f57610100808354040283529160200191610358565b820191905f5260205f20905b81548152906001019060200180831161033b57829003601f168201915b5050505050905090565b5f5f61036c610629565b9050610379818585610630565b600191505092915050565b5f600254905090565b734f9595e22a0881b1a13f9ac039b45a3eb56d649781565b5f5f6103af610629565b90506103bc858285610642565b6103c78585856106d5565b60019150509392505050565b5f6012905090565b5f5f5f8373ffffffffffffffffffffffffffffffffffffffff1673ffffffffffffffffffffffffffffffffffffffff1681526020019081526020015f20549050919050565b6104286107c5565b6104315f61084c565b565b5f60055f9054906101000a900473ffffffffffffffffffffffffffffffffffffffff16905090565b60606004805461046a90611072565b80601f016020809104026020016040519081016040528092919081815260200182805461049690611072565b80156104e15780601f106104b8576101008083540402835291602001916104e1565b820191905f5260205f20905b8154815290600101906020018083116104c457829003601f168201915b5050505050905090565b5f5f6104f5610629565b90506105028185856106d5565b600191505092915050565b6105156107c5565b61051f828261090f565b5050565b5f60015f8473ffffffffffffffffffffffffffffffffffffffff1673ffffffffffffffffffffffffffffffffffffffff1681526020019081526020015f205f8373ffffffffffffffffffffffffffffffffffffffff1673ffffffffffffffffffffffffffffffffffffffff1681526020019081526020015f2054905092915050565b6105ad6107c5565b5f73ffffffffffffffffffffffffffffffffffffffff168173ffffffffffffffffffffffffffffffffffffffff160361061d575f6040517f1e4fbdf70000000000000000000000000000000000000000000000000000000081526004016106149190610f3f565b60405180910390fd5b6106268161084c565b50565b5f33905090565b61063d838383600161098e565b505050565b5f61064d8484610523565b90507fffffffffffffffffffffffffffffffffffffffffffffffffffffffffffffffff8110156106cf57818110156106c0578281836040517ffb8f41b20000000000000000000000000000000000000000000000000000000081526004016106b7939291906110a2565b60405180910390fd5b6106ce84848484035f61098e565b5b50505050565b5f73ffffffffffffffffffffffffffffffffffffffff168373ffffffffffffffffffffffffffffffffffffffff1603610745575f6040517f96c6fd1e00000000000000000000000000000000000000000000000000000000815260040161073c9190610f3f565b60405180910390fd5b5f73ffffffffffffffffffffffffffffffffffffffff168273ffffffffffffffffffffffffffffffffffffffff16036107b5575f6040517fec442f050000000000000000000000000000000000000000000000000000000081526004016107ac9190610f3f565b60405180910390fd5b6107c0838383610b5d565b505050565b6107cd610629565b73ffffffffffffffffffffffffffffffffffffffff166107eb610433565b73ffffffffffffffffffffffffffffffffffffffff161461084a5761080e610629565b6040517f118cdaa70000000000000000000000000000000000000000000000000000000081526004016108419190610f3f565b60405180910390fd5b565b5f60055f9054906101000a900473ffffffffffffffffffffffffffffffffffffffff1690508160055f6101000a81548173ffffffffffffffffffffffffffffffffffffffff021916908373ffffffffffffffffffffffffffffffffffffffff1602179055508173ffffffffffffffffffffffffffffffffffffffff168173ffffffffffffffffffffffffffffffffffffffff167f8be0079c531659141344cd1fd0a4f28419497f9722a3daafe3b4186f6b6457e060405160405180910390a35050565b5f73ffffffffffffffffffffffffffffffffffffffff168273ffffffffffffffffffffffffffffffffffffffff160361097f575f6040517fec442f050000000000000000000000000000000000000000000000000000000081526004016109769190610f3f565b60405180910390fd5b61098a5f8383610b5d565b5050565b5f73ffffffffffffffffffffffffffffffffffffffff168473ffffffffffffffffffffffffffffffffffffffff16036109fe575f6040517fe602df050000000000000000000000000000000000000000000000000000000081526004016109f59190610f3f565b60405180910390fd5b5f73ffffffffffffffffffffffffffffffffffffffff168373ffffffffffffffffffffffffffffffffffffffff1603610a6e575f6040517f94280d62000000000000000000000000000000000000000000000000000000008152600401610a659190610f3f565b60405180910390fd5b8160015f8673ffffffffffffffffffffffffffffffffffffffff1673ffffffffffffffffffffffffffffffffffffffff1681526020019081526020015f205f8573ffffffffffffffffffffffffffffffffffffffff1673ffffffffffffffffffffffffffffffffffffffff1681526020019081526020015f20819055508015610b57578273ffffffffffffffffffffffffffffffffffffffff168473ffffffffffffffffffffffffffffffffffffffff167f8c5be1e5ebec7d5bd14f71427d1e84f3dd0314c0f7b2291e5b200ac8c7c3b92584604051610b4e9190610f17565b60405180910390a35b50505050565b5f73ffffffffffffffffffffffffffffffffffffffff168373ffffffffffffffffffffffffffffffffffffffff1603610bad578060025f828254610ba19190611104565b92505081905550610c7b565b5f5f5f8573ffffffffffffffffffffffffffffffffffffffff1673ffffffffffffffffffffffffffffffffffffffff1681526020019081526020015f2054905081811015610c36578381836040517fe450d38c000000000000000000000000000000000000000000000000000000008152600401610c2d939291906110a2565b60405180910390fd5b8181035f5f8673ffffffffffffffffffffffffffffffffffffffff1673ffffffffffffffffffffffffffffffffffffffff1681526020019081526020015f2081905550505b5f73ffffffffffffffffffffffffffffffffffffffff168273ffffffffffffffffffffffffffffffffffffffff1603610cc2578060025f8282540392505081905550610d0c565b805f5f8473ffffffffffffffffffffffffffffffffffffffff1673ffffffffffffffffffffffffffffffffffffffff1681526020019081526020015f205f82825401925050819055505b8173ffffffffffffffffffffffffffffffffffffffff168373ffffffffffffffffffffffffffffffffffffffff167fddf252ad1be2c89b69c2b068fc378daa952ba7f163c4a11628f55a4df523b3ef83604051610d699190610f17565b60405180910390a3505050565b5f81519050919050565b5f82825260208201905092915050565b8281835e5f83830152505050565b5f601f19601f8301169050919050565b5f610db882610d76565b610dc28185610d80565b9350610dd2818560208601610d90565b610ddb81610d9e565b840191505092915050565b5f6020820190508181035f830152610dfe8184610dae565b905092915050565b5f5ffd5b5f73ffffffffffffffffffffffffffffffffffffffff82169050919050565b5f610e3382610e0a565b9050919050565b610e4381610e29565b8114610e4d575f5ffd5b50565b5f81359050610e5e81610e3a565b92915050565b5f819050919050565b610e7681610e64565b8114610e80575f5ffd5b50565b5f81359050610e9181610e6d565b92915050565b5f5f60408385031215610ead57610eac610e06565b5b5f610eba85828601610e50565b9250506020610ecb85828601610e83565b9150509250929050565b5f8115159050919050565b610ee981610ed5565b82525050565b5f602082019050610f025f830184610ee0565b92915050565b610f1181610e64565b82525050565b5f602082019050610f2a5f830184610f08565b92915050565b610f3981610e29565b82525050565b5f602082019050610f525f830184610f30565b92915050565b5f5f5f60608486031215610f6f57610f6e610e06565b5b5f610f7c86828701610e50565b9350506020610f8d86828701610e50565b9250506040610f9e86828701610e83565b9150509250925092565b5f60ff82169050919050565b610fbd81610fa8565b82525050565b5f602082019050610fd65f830184610fb4565b92915050565b5f60208284031215610ff157610ff0610e06565b5b5f610ffe84828501610e50565b91505092915050565b5f5f6040838503121561101d5761101c610e06565b5b5f61102a85828601610e50565b925050602061103b85828601610e50565b9150509250929050565b7f4e487b71000000000000000000000000000000000000000000000000000000005f52602260045260245ffd5b5f600282049050600182168061108957607f821691505b60208210810361109c5761109b611045565b5b50919050565b5f6060820190506110b55f830186610f30565b6110c26020830185610f08565b6110cf6040830184610f08565b949350505050565b7f4e487b71000000000000000000000000000000000000000000000000000000005f52601160045260245ffd5b5f61110e82610e64565b915061111983610e64565b9250828201905080821115611131576111306110d7565b5b9291505056fea26469706673582212202c07d301ecb1aefb07ea4ef9924a4bb59f591e93e492ea203549da2d5b35204464736f6c63430008210033","linkReferences":{}},"methodIdentifiers":{"SOVEREIGN_VAULT()":"20479cd2","allowance(address,address)":"dd62ed3e","approve(address,uint256)":"095ea7b3","balanceOf(address)":"70a08231","decimals()":"313ce567","mintSovereignReward(address,uint256)":"bed9b267","name()":"06fdde03","owner()":"8da5cb5b","renounceOwnership()":"715018a6","symbol()":"95d89b41","totalSupply()":"18160ddd","transfer(address,uint256)":"a9059cbb","transferFrom(address,address,uint256)":"23b872dd","transferOwnership(address)":"f2fde38b"},"id":0}