{"abi":[{"type":"constructor","inputs":[],"stateMutability":"nonpayable"},{"type":"function","name":"allowance","inputs":[{"name":"owner","type":"address","internalType":"address"},{"name":"spender","type":"address","internalType":"address"}],"outputs":[{"name":"","type":"uint256","internalType":"uint256"}],"stateMutability":"view"},{"type":"function","name":"approve","inputs":[{"name":"spender","type":"address","internalType":"address"},{"name":"value","type":"uint256","internalType":"uint256"}],"outputs":[{"name":"","type":"bool","internalType":"bool"}],"stateMutability":"nonpayable"},{"type":"function","name":"balanceOf","inputs":[{"name":"account","type":"address","internalType":"address"}],"outputs":[{"name":"","type":"uint256","internalType":"uint256"}],"stateMutability":"view"},{"type":"function","name":"bulkApprove","inputs":[{"name":"spender","type":"address","internalType":"address"},{"name":"amount","type":"uint256","internalType":"uint256"}],"outputs":[],"stateMutability":"nonpayable"},{"type":"function","name":"decimals","inputs":[],"outputs":[{"name":"","type":"uint8","internalType":"uint8"}],"stateMutability":"view"},{"type":"function","name":"name","inputs":[],"outputs":[{"name":"","type":"string","internalType":"string"}],"stateMutability":"view"},{"type":"function","name":"owner","inputs":[],"outputs":[{"name":"","type":"address","internalType":"address"}],"stateMutability":"view"},{"type":"function","name":"renounceOwnership","inputs":[],"outputs":[],"stateMutability":"nonpayable"},{"type":"function","name":"symbol","inputs":[],"outputs":[{"name":"","type":"string","internalType":"string"}],"stateMutability":"view"},{"type":"function","name":"totalSupply","inputs":[],"outputs":[{"name":"","type":"uint256","internalType":"uint256"}],"stateMutability":"view"},{"type":"function","name":"transfer","inputs":[{"name":"to","type":"address","internalType":"address"},{"name":"value","type":"uint256","internalType":"uint256"}],"outputs":[{"name":"","type":"bool","internalType":"bool"}],"stateMutability":"nonpayable"},{"type":"function","name":"transferFrom","inputs":[{"name":"from","type":"address","internalType":"address"},{"name":"to","type":"address","internalType":"address"},{"name":"value","type":"uint256","internalType":"uint256"}],"outputs":[{"name":"","type":"bool","internalType":"bool"}],"stateMutability":"nonpayable"},{"type":"function","name":"transferOwnership","inputs":[{"name":"newOwner","type":"address","internalType":"address"}],"outputs":[],"stateMutability":"nonpayable"},{"type":"event","name":"Approval","inputs":[{"name":"owner","type":"address","indexed":true,"internalType":"address"},{"name":"spender","type":"address","indexed":true,"internalType":"address"},{"name":"value","type":"uint256","indexed":false,"internalType":"uint256"}],"anonymous":false},{"type":"event","name":"OwnershipTransferred","inputs":[{"name":"previousOwner","type":"address","indexed":true,"internalType":"address"},{"name":"newOwner","type":"address","indexed":true,"internalType":"address"}],"anonymous":false},{"type":"event","name":"Transfer","inputs":[{"name":"from","type":"address","indexed":true,"internalType":"address"},{"name":"to","type":"address","indexed":true,"internalType":"address"},{"name":"value","type":"uint256","indexed":false,"internalType":"uint256"}],"anonymous":false},{"type":"error","name":"ERC20InsufficientAllowance","inputs":[{"name":"spender","type":"address","internalType":"address"},{"name":"allowance","type":"uint256","internalType":"uint256"},{"name":"needed","type":"uint256","internalType":"uint256"}]},{"type":"error","name":"ERC20InsufficientBalance","inputs":[{"name":"sender","type":"address","internalType":"address"},{"name":"balance","type":"uint256","internalType":"uint256"},{"name":"needed","type":"uint256","internalType":"uint256"}]},{"type":"error","name":"ERC20InvalidApprover","inputs":[{"name":"approver","type":"address","internalType":"address"}]},{"type":"error","name":"ERC20InvalidReceiver","inputs":[{"name":"receiver","type":"address","internalType":"address"}]},{"type":"error","name":"ERC20InvalidSender","inputs":[{"name":"sender","type":"address","internalType":"address"}]},{"type":"error","name":"ERC20InvalidSpender","inputs":[{"name":"spender","type":"address","internalType":"address"}]},{"type":"error","name":"OwnableInvalidOwner","inputs":[{"name":"owner","type":"address","internalType":"address"}]},{"type":"error","name":"OwnableUnauthorizedAccount","inputs":[{"name":"account","type":"address","internalType":"address"}]}],"bytecode":{"object":"0x608060405234801561000f575f5ffd5b50336040518060400160405280601381526020017f43726564697420436f696e2050726976617465000000000000000000000000008152506040518060400160405280600281526020017f4343000000000000000000000000000000000000000000000000000000000000815250816003908161008c91906106f0565b50806004908161009c91906106f0565b5050505f73ffffffffffffffffffffffffffffffffffffffff168173ffffffffffffffffffffffffffffffffffffffff160361010f575f6040517f1e4fbdf700000000000000000000000000000000000000000000000000000000815260040161010691906107fe565b60405180910390fd5b61011e8161014160201b60201c565b5061013c336c01b7709034e6c4205b4000000061020460201b60201c565b6108d4565b5f60055f9054906101000a900473ffffffffffffffffffffffffffffffffffffffff1690508160055f6101000a81548173ffffffffffffffffffffffffffffffffffffffff021916908373ffffffffffffffffffffffffffffffffffffffff1602179055508173ffffffffffffffffffffffffffffffffffffffff168173ffffffffffffffffffffffffffffffffffffffff167f8be0079c531659141344cd1fd0a4f28419497f9722a3daafe3b4186f6b6457e060405160405180910390a35050565b5f73ffffffffffffffffffffffffffffffffffffffff168273ffffffffffffffffffffffffffffffffffffffff1603610274575f6040517fec442f0500000000000000000000000000000000000000000000000000000000815260040161026b91906107fe565b60405180910390fd5b6102855f838361028960201b60201c565b5050565b5f73ffffffffffffffffffffffffffffffffffffffff168373ffffffffffffffffffffffffffffffffffffffff16036102d9578060025f8282546102cd9190610844565b925050819055506103a7565b5f5f5f8573ffffffffffffffffffffffffffffffffffffffff1673ffffffffffffffffffffffffffffffffffffffff1681526020019081526020015f2054905081811015610362578381836040517fe450d38c00000000000000000000000000000000000000000000000000000000815260040161035993929190610886565b60405180910390fd5b8181035f5f8673ffffffffffffffffffffffffffffffffffffffff1673ffffffffffffffffffffffffffffffffffffffff1681526020019081526020015f2081905550505b5f73ffffffffffffffffffffffffffffffffffffffff168273ffffffffffffffffffffffffffffffffffffffff16036103ee578060025f8282540392505081905550610438565b805f5f8473ffffffffffffffffffffffffffffffffffffffff1673ffffffffffffffffffffffffffffffffffffffff1681526020019081526020015f205f82825401925050819055505b8173ffffffffffffffffffffffffffffffffffffffff168373ffffffffffffffffffffffffffffffffffffffff167fddf252ad1be2c89b69c2b068fc378daa952ba7f163c4a11628f55a4df523b3ef8360405161049591906108bb565b60405180910390a3505050565b5f81519050919050565b7f4e487b71000000000000000000000000000000000000000000000000000000005f52604160045260245ffd5b7f4e487b71000000000000000000000000000000000000000000000000000000005f52602260045260245ffd5b5f600282049050600182168061051d57607f821691505b6020821081036105305761052f6104d9565b5b50919050565b5f819050815f5260205f209050919050565b5f6020601f8301049050919050565b5f82821b905092915050565b5f600883026105927fffffffffffffffffffffffffffffffffffffffffffffffffffffffffffffffff82610557565b61059c8683610557565b95508019841693508086168417925050509392505050565b5f819050919050565b5f819050919050565b5f6105e06105db6105d6846105b4565b6105bd565b6105b4565b9050919050565b5f819050919050565b6105f9836105c6565b61060d610605826105e7565b848454610563565b825550505050565b5f5f905090565b610624610615565b61062f8184846105f0565b505050565b5f5b828110156106555761064a5f82840161061c565b600181019050610636565b505050565b601f8211156106a857828211156106a75761067481610536565b61067d83610548565b61068685610548565b6020861015610693575f90505b8083016106a282840382610634565b505050505b5b505050565b5f82821c905092915050565b5f6106c85f19846008026106ad565b1980831691505092915050565b5f6106e083836106b9565b9150826002028217905092915050565b6106f9826104a2565b67ffffffffffffffff811115610712576107116104ac565b5b61071c8254610506565b61072782828561065a565b5f60209050601f831160018114610758575f8415610746578287015190505b61075085826106d5565b8655506107b7565b601f19841661076686610536565b5f5b8281101561078d57848901518255600182019150602085019450602081019050610768565b868310156107aa57848901516107a6601f8916826106b9565b8355505b6001600288020188555050505b505050505050565b5f73ffffffffffffffffffffffffffffffffffffffff82169050919050565b5f6107e8826107bf565b9050919050565b6107f8816107de565b82525050565b5f6020820190506108115f8301846107ef565b92915050565b7f4e487b71000000000000000000000000000000000000000000000000000000005f52601160045260245ffd5b5f61084e826105b4565b9150610859836105b4565b925082820190508082111561087157610870610817565b5b92915050565b610880816105b4565b82525050565b5f6060820190506108995f8301866107ef565b6108a66020830185610877565b6108b36040830184610877565b949350505050565b5f6020820190506108ce5f830184610877565b92915050565b611096806108e15f395ff3fe608060405234801561000f575f5ffd5b50600436106100cd575f3560e01c8063715018a61161008a57806395d89b411161006457806395d89b41146101ff578063a9059cbb1461021d578063dd62ed3e1461024d578063f2fde38b1461027d576100cd565b8063715018a6146101bb5780638d2935c0146101c55780638da5cb5b146101e1576100cd565b806306fdde03146100d1578063095ea7b3146100ef57806318160ddd1461011f57806323b872dd1461013d578063313ce5671461016d57806370a082311461018b575b5f5ffd5b6100d9610299565b6040516100e69190610d0f565b60405180910390f35b61010960048036038101906101049190610dc0565b610329565b6040516101169190610e18565b60405180910390f35b61012761034b565b6040516101349190610e40565b60405180910390f35b61015760048036038101906101529190610e59565b610354565b6040516101649190610e18565b60405180910390f35b610175610382565b6040516101829190610ec4565b60405180910390f35b6101a560048036038101906101a09190610edd565b61038a565b6040516101b29190610e40565b60405180910390f35b6101c36103cf565b005b6101df60048036038101906101da9190610dc0565b6103e2565b005b6101e96103f1565b6040516101f69190610f17565b60405180910390f35b610207610419565b6040516102149190610d0f565b60405180910390f35b61023760048036038101906102329190610dc0565b6104a9565b6040516102449190610e18565b60405180910390f35b61026760048036038101906102629190610f30565b6104cb565b6040516102749190610e40565b60405180910390f35b61029760048036038101906102929190610edd565b61054d565b005b6060600380546102a890610f9b565b80601f01602080910402602001604051908101604052809291908181526020018280546102d490610f9b565b801561031f5780601f106102f65761010080835404028352916020019161031f565b820191905f5260205f20905b81548152906001019060200180831161030257829003601f168201915b5050505050905090565b5f5f6103336105d1565b90506103408185856105d8565b600191505092915050565b5f600254905090565b5f5f61035e6105d1565b905061036b8582856105ea565b61037685858561067d565b60019150509392505050565b5f6012905090565b5f5f5f8373ffffffffffffffffffffffffffffffffffffffff1673ffffffffffffffffffffffffffffffffffffffff1681526020019081526020015f20549050919050565b6103d761076d565b6103e05f6107f4565b565b6103ed3383836105d8565b5050565b5f60055f9054906101000a900473ffffffffffffffffffffffffffffffffffffffff16905090565b60606004805461042890610f9b565b80601f016020809104026020016040519081016040528092919081815260200182805461045490610f9b565b801561049f5780601f106104765761010080835404028352916020019161049f565b820191905f5260205f20905b81548152906001019060200180831161048257829003601f168201915b5050505050905090565b5f5f6104b36105d1565b90506104c081858561067d565b600191505092915050565b5f60015f8473ffffffffffffffffffffffffffffffffffffffff1673ffffffffffffffffffffffffffffffffffffffff1681526020019081526020015f205f8373ffffffffffffffffffffffffffffffffffffffff1673ffffffffffffffffffffffffffffffffffffffff1681526020019081526020015f2054905092915050565b61055561076d565b5f73ffffffffffffffffffffffffffffffffffffffff168173ffffffffffffffffffffffffffffffffffffffff16036105c5575f6040517f1e4fbdf70000000000000000000000000000000000000000000000000000000081526004016105bc9190610f17565b60405180910390fd5b6105ce816107f4565b50565b5f33905090565b6105e583838360016108b7565b505050565b5f6105f584846104cb565b90507fffffffffffffffffffffffffffffffffffffffffffffffffffffffffffffffff8110156106775781811015610668578281836040517ffb8f41b200000000000000000000000000000000000000000000000000000000815260040161065f93929190610fcb565b60405180910390fd5b61067684848484035f6108b7565b5b50505050565b5f73ffffffffffffffffffffffffffffffffffffffff168373ffffffffffffffffffffffffffffffffffffffff16036106ed575f6040517f96c6fd1e0000000000000000000000000000000000000000000000000000000081526004016106e49190610f17565b60405180910390fd5b5f73ffffffffffffffffffffffffffffffffffffffff168273ffffffffffffffffffffffffffffffffffffffff160361075d575f6040517fec442f050000000000000000000000000000000000000000000000000000000081526004016107549190610f17565b60405180910390fd5b610768838383610a86565b505050565b6107756105d1565b73ffffffffffffffffffffffffffffffffffffffff166107936103f1565b73ffffffffffffffffffffffffffffffffffffffff16146107f2576107b66105d1565b6040517f118cdaa70000000000000000000000000000000000000000000000000000000081526004016107e99190610f17565b60405180910390fd5b565b5f60055f9054906101000a900473ffffffffffffffffffffffffffffffffffffffff1690508160055f6101000a81548173ffffffffffffffffffffffffffffffffffffffff021916908373ffffffffffffffffffffffffffffffffffffffff1602179055508173ffffffffffffffffffffffffffffffffffffffff168173ffffffffffffffffffffffffffffffffffffffff167f8be0079c531659141344cd1fd0a4f28419497f9722a3daafe3b4186f6b6457e060405160405180910390a35050565b5f73ffffffffffffffffffffffffffffffffffffffff168473ffffffffffffffffffffffffffffffffffffffff1603610927575f6040517fe602df0500000000000000000000000000000000000000000000000000000000815260040161091e9190610f17565b60405180910390fd5b5f73ffffffffffffffffffffffffffffffffffffffff168373ffffffffffffffffffffffffffffffffffffffff1603610997575f6040517f94280d6200000000000000000000000000000000000000000000000000000000815260040161098e9190610f17565b60405180910390fd5b8160015f8673ffffffffffffffffffffffffffffffffffffffff1673ffffffffffffffffffffffffffffffffffffffff1681526020019081526020015f205f8573ffffffffffffffffffffffffffffffffffffffff1673ffffffffffffffffffffffffffffffffffffffff1681526020019081526020015f20819055508015610a80578273ffffffffffffffffffffffffffffffffffffffff168473ffffffffffffffffffffffffffffffffffffffff167f8c5be1e5ebec7d5bd14f71427d1e84f3dd0314c0f7b2291e5b200ac8c7c3b92584604051610a779190610e40565b60405180910390a35b50505050565b5f73ffffffffffffffffffffffffffffffffffffffff168373ffffffffffffffffffffffffffffffffffffffff1603610ad6578060025f828254610aca919061102d565b92505081905550610ba4565b5f5f5f8573ffffffffffffffffffffffffffffffffffffffff1673ffffffffffffffffffffffffffffffffffffffff1681526020019081526020015f2054905081811015610b5f578381836040517fe450d38c000000000000000000000000000000000000000000000000000000008152600401610b5693929190610fcb565b60405180910390fd5b8181035f5f8673ffffffffffffffffffffffffffffffffffffffff1673ffffffffffffffffffffffffffffffffffffffff1681526020019081526020015f2081905550505b5f73ffffffffffffffffffffffffffffffffffffffff168273ffffffffffffffffffffffffffffffffffffffff1603610beb578060025f8282540392505081905550610c35565b805f5f8473ffffffffffffffffffffffffffffffffffffffff1673ffffffffffffffffffffffffffffffffffffffff1681526020019081526020015f205f82825401925050819055505b8173ffffffffffffffffffffffffffffffffffffffff168373ffffffffffffffffffffffffffffffffffffffff167fddf252ad1be2c89b69c2b068fc378daa952ba7f163c4a11628f55a4df523b3ef83604051610c929190610e40565b60405180910390a3505050565b5f81519050919050565b5f82825260208201905092915050565b8281835e5f83830152505050565b5f601f19601f8301169050919050565b5f610ce182610c9f565b610ceb8185610ca9565b9350610cfb818560208601610cb9565b610d0481610cc7565b840191505092915050565b5f6020820190508181035f830152610d278184610cd7565b905092915050565b5f5ffd5b5f73ffffffffffffffffffffffffffffffffffffffff82169050919050565b5f610d5c82610d33565b9050919050565b610d6c81610d52565b8114610d76575f5ffd5b50565b5f81359050610d8781610d63565b92915050565b5f819050919050565b610d9f81610d8d565b8114610da9575f5ffd5b50565b5f81359050610dba81610d96565b92915050565b5f5f60408385031215610dd657610dd5610d2f565b5b5f610de385828601610d79565b9250506020610df485828601610dac565b9150509250929050565b5f8115159050919050565b610e1281610dfe565b82525050565b5f602082019050610e2b5f830184610e09565b92915050565b610e3a81610d8d565b82525050565b5f602082019050610e535f830184610e31565b92915050565b5f5f5f60608486031215610e7057610e6f610d2f565b5b5f610e7d86828701610d79565b9350506020610e8e86828701610d79565b9250506040610e9f86828701610dac565b9150509250925092565b5f60ff82169050919050565b610ebe81610ea9565b82525050565b5f602082019050610ed75f830184610eb5565b92915050565b5f60208284031215610ef257610ef1610d2f565b5b5f610eff84828501610d79565b91505092915050565b610f1181610d52565b82525050565b5f602082019050610f2a5f830184610f08565b92915050565b5f5f60408385031215610f4657610f45610d2f565b5b5f610f5385828601610d79565b9250506020610f6485828601610d79565b9150509250929050565b7f4e487b71000000000000000000000000000000000000000000000000000000005f52602260045260245ffd5b5f6002820490506001821680610fb257607f821691505b602082108103610fc557610fc4610f6e565b5b50919050565b5f606082019050610fde5f830186610f08565b610feb6020830185610e31565b610ff86040830184610e31565b949350505050565b7f4e487b71000000000000000000000000000000000000000000000000000000005f52601160045260245ffd5b5f61103782610d8d565b915061104283610d8d565b925082820190508082111561105a57611059611000565b5b9291505056fea2646970667358221220bc8cbc7e4c98ea4456cbc09b3dfa3c051891cdb1b4c1fee82237df3b53dd436264736f6c63430008210033","linkReferences":{}},"methodIdentifiers":{"allowance(address,address)":"dd62ed3e","approve(address,uint256)":"095ea7b3","balanceOf(address)":"70a08231","bulkApprove(address,uint256)":"8d2935c0","decimals()":"313ce567","name()":"06fdde03","owner()":"8da5cb5b","renounceOwnership()":"715018a6","symbol()":"95d89b41","totalSupply()":"18160ddd","transfer(address,uint256)":"a9059cbb","transferFrom(address,address,uint256)":"23b872dd","transferOwnership(address)":"f2fde38b"},"id":1}