{
  "_format": "hh3-artifact-1",
  "contractName": "SaunaVault",
  "sourceName": "contracts/SaunaVault.sol",
  "abi": [
    {
      "inputs": [
        {
          "internalType": "address",
          "name": "_saUSD",
          "type": "address"
        }
      ],
      "stateMutability": "nonpayable",
      "type": "constructor"
    },
    {
      "inputs": [
        {
          "internalType": "address",
          "name": "owner",
          "type": "address"
        }
      ],
      "name": "OwnableInvalidOwner",
      "type": "error"
    },
    {
      "inputs": [
        {
          "internalType": "address",
          "name": "account",
          "type": "address"
        }
      ],
      "name": "OwnableUnauthorizedAccount",
      "type": "error"
    },
    {
      "anonymous": false,
      "inputs": [
        {
          "indexed": true,
          "internalType": "address",
          "name": "user",
          "type": "address"
        },
        {
          "indexed": false,
          "internalType": "uint256",
          "name": "amount",
          "type": "uint256"
        }
      ],
      "name": "Deposited",
      "type": "event"
    },
    {
      "anonymous": false,
      "inputs": [
        {
          "indexed": true,
          "internalType": "address",
          "name": "previousOwner",
          "type": "address"
        },
        {
          "indexed": true,
          "internalType": "address",
          "name": "newOwner",
          "type": "address"
        }
      ],
      "name": "OwnershipTransferred",
      "type": "event"
    },
    {
      "inputs": [
        {
          "internalType": "uint256",
          "name": "amount",
          "type": "uint256"
        }
      ],
      "name": "deposit",
      "outputs": [],
      "stateMutability": "nonpayable",
      "type": "function"
    },
    {
      "inputs": [
        {
          "internalType": "address",
          "name": "",
          "type": "address"
        }
      ],
      "name": "deposits",
      "outputs": [
        {
          "internalType": "uint256",
          "name": "",
          "type": "uint256"
        }
      ],
      "stateMutability": "view",
      "type": "function"
    },
    {
      "inputs": [],
      "name": "owner",
      "outputs": [
        {
          "internalType": "address",
          "name": "",
          "type": "address"
        }
      ],
      "stateMutability": "view",
      "type": "function"
    },
    {
      "inputs": [],
      "name": "renounceOwnership",
      "outputs": [],
      "stateMutability": "nonpayable",
      "type": "function"
    },
    {
      "inputs": [],
      "name": "saUSD",
      "outputs": [
        {
          "internalType": "contract IERC20",
          "name": "",
          "type": "address"
        }
      ],
      "stateMutability": "view",
      "type": "function"
    },
    {
      "inputs": [
        {
          "internalType": "address",
          "name": "newOwner",
          "type": "address"
        }
      ],
      "name": "transferOwnership",
      "outputs": [],
      "stateMutability": "nonpayable",
      "type": "function"
    }
  ],
  "bytecode": "0x608060405234801561001057600080fd5b506040516104ca3803806104ca83398101604081905261002f916100d4565b338061005557604051631e4fbdf760e01b81526000600482015260240160405180910390fd5b61005e81610084565b50600180546001600160a01b0319166001600160a01b0392909216919091179055610104565b600080546001600160a01b038381166001600160a01b0319831681178455604051919092169283917f8be0079c531659141344cd1fd0a4f28419497f9722a3daafe3b4186f6b6457e09190a35050565b6000602082840312156100e657600080fd5b81516001600160a01b03811681146100fd57600080fd5b9392505050565b6103b7806101136000396000f3fe608060405234801561001057600080fd5b50600436106100625760003560e01c80633122d53414610067578063715018a6146100975780638da5cb5b146100a1578063b6b55f25146100b2578063f2fde38b146100c5578063fc7e286d146100d8575b600080fd5b60015461007a906001600160a01b031681565b6040516001600160a01b0390911681526020015b60405180910390f35b61009f610106565b005b6000546001600160a01b031661007a565b61009f6100c03660046102ef565b61011a565b61009f6100d3366004610308565b610234565b6100f86100e6366004610308565b60026020526000908152604090205481565b60405190815260200161008e565b61010e610272565b610118600061029f565b565b6001546040516323b872dd60e01b8152336004820152306024820152604481018390526001600160a01b03909116906323b872dd906064016020604051808303816000875af1158015610171573d6000803e3d6000fd5b505050506040513d601f19601f820116820180604052508101906101959190610338565b6101d85760405162461bcd60e51b815260206004820152600f60248201526e151c985b9cd9995c8819985a5b1959608a1b60448201526064015b60405180910390fd5b33600090815260026020526040812080548392906101f790849061035a565b909155505060405181815233907f2da466a7b24304f47e87fa2e1e5a81b9831ce54fec19055ce277ca2f39ba42c49060200160405180910390a250565b61023c610272565b6001600160a01b03811661026657604051631e4fbdf760e01b8152600060048201526024016101cf565b61026f8161029f565b50565b6000546001600160a01b031633146101185760405163118cdaa760e01b81523360048201526024016101cf565b600080546001600160a01b038381166001600160a01b0319831681178455604051919092169283917f8be0079c531659141344cd1fd0a4f28419497f9722a3daafe3b4186f6b6457e09190a35050565b60006020828403121561030157600080fd5b5035919050565b60006020828403121561031a57600080fd5b81356001600160a01b038116811461033157600080fd5b9392505050565b60006020828403121561034a57600080fd5b8151801515811461033157600080fd5b8082018082111561037b57634e487b7160e01b600052601160045260246000fd5b9291505056fea26469706673582212205af38f62d2fcceaa7d1b7245737ad17ec519e7683799cfa579082e48f39ef9bc64736f6c63430008140033",
  "linkReferences": {},
  "deployedLinkReferences": {},
  "immutableReferences": {},
  "inputSourceName": "project/contracts/SaunaVault.sol",
  "buildInfoId": "solc-0_8_20-4c2ee4c07cbdf11839cb34861dfd62680612b549"
}