{"abi":[{"type":"constructor","inputs":[{"name":"minDelay","type":"uint256","internalType":"uint256"},{"name":"proposers","type":"address[]","internalType":"address[]"},{"name":"executors","type":"address[]","internalType":"address[]"},{"name":"admin","type":"address","internalType":"address"}],"stateMutability":"nonpayable"},{"type":"receive","stateMutability":"payable"},{"type":"function","name":"CANCELLER_ROLE","inputs":[],"outputs":[{"name":"","type":"bytes32","internalType":"bytes32"}],"stateMutability":"view"},{"type":"function","name":"DEFAULT_ADMIN_ROLE","inputs":[],"outputs":[{"name":"","type":"bytes32","internalType":"bytes32"}],"stateMutability":"view"},{"type":"function","name":"EXECUTOR_ROLE","inputs":[],"outputs":[{"name":"","type":"bytes32","internalType":"bytes32"}],"stateMutability":"view"},{"type":"function","name":"PROPOSER_ROLE","inputs":[],"outputs":[{"name":"","type":"bytes32","internalType":"bytes32"}],"stateMutability":"view"},{"type":"function","name":"cancel","inputs":[{"name":"id","type":"bytes32","internalType":"bytes32"}],"outputs":[],"stateMutability":"nonpayable"},{"type":"function","name":"execute","inputs":[{"name":"target","type":"address","internalType":"address"},{"name":"value","type":"uint256","internalType":"uint256"},{"name":"payload","type":"bytes","internalType":"bytes"},{"name":"predecessor","type":"bytes32","internalType":"bytes32"},{"name":"salt","type":"bytes32","internalType":"bytes32"}],"outputs":[],"stateMutability":"payable"},{"type":"function","name":"executeBatch","inputs":[{"name":"targets","type":"address[]","internalType":"address[]"},{"name":"values","type":"uint256[]","internalType":"uint256[]"},{"name":"payloads","type":"bytes[]","internalType":"bytes[]"},{"name":"predecessor","type":"bytes32","internalType":"bytes32"},{"name":"salt","type":"bytes32","internalType":"bytes32"}],"outputs":[],"stateMutability":"payable"},{"type":"function","name":"getMinDelay","inputs":[],"outputs":[{"name":"","type":"uint256","internalType":"uint256"}],"stateMutability":"view"},{"type":"function","name":"getOperationState","inputs":[{"name":"id","type":"bytes32","internalType":"bytes32"}],"outputs":[{"name":"","type":"uint8","internalType":"enum TimelockController.OperationState"}],"stateMutability":"view"},{"type":"function","name":"getRoleAdmin","inputs":[{"name":"role","type":"bytes32","internalType":"bytes32"}],"outputs":[{"name":"","type":"bytes32","internalType":"bytes32"}],"stateMutability":"view"},{"type":"function","name":"getTimestamp","inputs":[{"name":"id","type":"bytes32","internalType":"bytes32"}],"outputs":[{"name":"","type":"uint256","internalType":"uint256"}],"stateMutability":"view"},{"type":"function","name":"grantRole","inputs":[{"name":"role","type":"bytes32","internalType":"bytes32"},{"name":"account","type":"address","internalType":"address"}],"outputs":[],"stateMutability":"nonpayable"},{"type":"function","name":"hasRole","inputs":[{"name":"role","type":"bytes32","internalType":"bytes32"},{"name":"account","type":"address","internalType":"address"}],"outputs":[{"name":"","type":"bool","internalType":"bool"}],"stateMutability":"view"},{"type":"function","name":"hashOperation","inputs":[{"name":"target","type":"address","internalType":"address"},{"name":"value","type":"uint256","internalType":"uint256"},{"name":"data","type":"bytes","internalType":"bytes"},{"name":"predecessor","type":"bytes32","internalType":"bytes32"},{"name":"salt","type":"bytes32","internalType":"bytes32"}],"outputs":[{"name":"","type":"bytes32","internalType":"bytes32"}],"stateMutability":"pure"},{"type":"function","name":"hashOperationBatch","inputs":[{"name":"targets","type":"address[]","internalType":"address[]"},{"name":"values","type":"uint256[]","internalType":"uint256[]"},{"name":"payloads","type":"bytes[]","internalType":"bytes[]"},{"name":"predecessor","type":"bytes32","internalType":"bytes32"},{"name":"salt","type":"bytes32","internalType":"bytes32"}],"outputs":[{"name":"","type":"bytes32","internalType":"bytes32"}],"stateMutability":"pure"},{"type":"function","name":"isOperation","inputs":[{"name":"id","type":"bytes32","internalType":"bytes32"}],"outputs":[{"name":"","type":"bool","internalType":"bool"}],"stateMutability":"view"},{"type":"function","name":"isOperationDone","inputs":[{"name":"id","type":"bytes32","internalType":"bytes32"}],"outputs":[{"name":"","type":"bool","internalType":"bool"}],"stateMutability":"view"},{"type":"function","name":"isOperationPending","inputs":[{"name":"id","type":"bytes32","internalType":"bytes32"}],"outputs":[{"name":"","type":"bool","internalType":"bool"}],"stateMutability":"view"},{"type":"function","name":"isOperationReady","inputs":[{"name":"id","type":"bytes32","internalType":"bytes32"}],"outputs":[{"name":"","type":"bool","internalType":"bool"}],"stateMutability":"view"},{"type":"function","name":"onERC1155BatchReceived","inputs":[{"name":"","type":"address","internalType":"address"},{"name":"","type":"address","internalType":"address"},{"name":"","type":"uint256[]","internalType":"uint256[]"},{"name":"","type":"uint256[]","internalType":"uint256[]"},{"name":"","type":"bytes","internalType":"bytes"}],"outputs":[{"name":"","type":"bytes4","internalType":"bytes4"}],"stateMutability":"nonpayable"},{"type":"function","name":"onERC1155Received","inputs":[{"name":"","type":"address","internalType":"address"},{"name":"","type":"address","internalType":"address"},{"name":"","type":"uint256","internalType":"uint256"},{"name":"","type":"uint256","internalType":"uint256"},{"name":"","type":"bytes","internalType":"bytes"}],"outputs":[{"name":"","type":"bytes4","internalType":"bytes4"}],"stateMutability":"nonpayable"},{"type":"function","name":"onERC721Received","inputs":[{"name":"","type":"address","internalType":"address"},{"name":"","type":"address","internalType":"address"},{"name":"","type":"uint256","internalType":"uint256"},{"name":"","type":"bytes","internalType":"bytes"}],"outputs":[{"name":"","type":"bytes4","internalType":"bytes4"}],"stateMutability":"nonpayable"},{"type":"function","name":"renounceRole","inputs":[{"name":"role","type":"bytes32","internalType":"bytes32"},{"name":"callerConfirmation","type":"address","internalType":"address"}],"outputs":[],"stateMutability":"nonpayable"},{"type":"function","name":"revokeRole","inputs":[{"name":"role","type":"bytes32","internalType":"bytes32"},{"name":"account","type":"address","internalType":"address"}],"outputs":[],"stateMutability":"nonpayable"},{"type":"function","name":"schedule","inputs":[{"name":"target","type":"address","internalType":"address"},{"name":"value","type":"uint256","internalType":"uint256"},{"name":"data","type":"bytes","internalType":"bytes"},{"name":"predecessor","type":"bytes32","internalType":"bytes32"},{"name":"salt","type":"bytes32","internalType":"bytes32"},{"name":"delay","type":"uint256","internalType":"uint256"}],"outputs":[],"stateMutability":"nonpayable"},{"type":"function","name":"scheduleBatch","inputs":[{"name":"targets","type":"address[]","internalType":"address[]"},{"name":"values","type":"uint256[]","internalType":"uint256[]"},{"name":"payloads","type":"bytes[]","internalType":"bytes[]"},{"name":"predecessor","type":"bytes32","internalType":"bytes32"},{"name":"salt","type":"bytes32","internalType":"bytes32"},{"name":"delay","type":"uint256","internalType":"uint256"}],"outputs":[],"stateMutability":"nonpayable"},{"type":"function","name":"supportsInterface","inputs":[{"name":"interfaceId","type":"bytes4","internalType":"bytes4"}],"outputs":[{"name":"","type":"bool","internalType":"bool"}],"stateMutability":"view"},{"type":"function","name":"updateDelay","inputs":[{"name":"newDelay","type":"uint256","internalType":"uint256"}],"outputs":[],"stateMutability":"nonpayable"},{"type":"event","name":"CallExecuted","inputs":[{"name":"id","type":"bytes32","indexed":true,"internalType":"bytes32"},{"name":"index","type":"uint256","indexed":true,"internalType":"uint256"},{"name":"target","type":"address","indexed":false,"internalType":"address"},{"name":"value","type":"uint256","indexed":false,"internalType":"uint256"},{"name":"data","type":"bytes","indexed":false,"internalType":"bytes"}],"anonymous":false},{"type":"event","name":"CallSalt","inputs":[{"name":"id","type":"bytes32","indexed":true,"internalType":"bytes32"},{"name":"salt","type":"bytes32","indexed":false,"internalType":"bytes32"}],"anonymous":false},{"type":"event","name":"CallScheduled","inputs":[{"name":"id","type":"bytes32","indexed":true,"internalType":"bytes32"},{"name":"index","type":"uint256","indexed":true,"internalType":"uint256"},{"name":"target","type":"address","indexed":false,"internalType":"address"},{"name":"value","type":"uint256","indexed":false,"internalType":"uint256"},{"name":"data","type":"bytes","indexed":false,"internalType":"bytes"},{"name":"predecessor","type":"bytes32","indexed":false,"internalType":"bytes32"},{"name":"delay","type":"uint256","indexed":false,"internalType":"uint256"}],"anonymous":false},{"type":"event","name":"Cancelled","inputs":[{"name":"id","type":"bytes32","indexed":true,"internalType":"bytes32"}],"anonymous":false},{"type":"event","name":"MinDelayChange","inputs":[{"name":"oldDuration","type":"uint256","indexed":false,"internalType":"uint256"},{"name":"newDuration","type":"uint256","indexed":false,"internalType":"uint256"}],"anonymous":false},{"type":"event","name":"RoleAdminChanged","inputs":[{"name":"role","type":"bytes32","indexed":true,"internalType":"bytes32"},{"name":"previousAdminRole","type":"bytes32","indexed":true,"internalType":"bytes32"},{"name":"newAdminRole","type":"bytes32","indexed":true,"internalType":"bytes32"}],"anonymous":false},{"type":"event","name":"RoleGranted","inputs":[{"name":"role","type":"bytes32","indexed":true,"internalType":"bytes32"},{"name":"account","type":"address","indexed":true,"internalType":"address"},{"name":"sender","type":"address","indexed":true,"internalType":"address"}],"anonymous":false},{"type":"event","name":"RoleRevoked","inputs":[{"name":"role","type":"bytes32","indexed":true,"internalType":"bytes32"},{"name":"account","type":"address","indexed":true,"internalType":"address"},{"name":"sender","type":"address","indexed":true,"internalType":"address"}],"anonymous":false},{"type":"error","name":"AccessControlBadConfirmation","inputs":[]},{"type":"error","name":"AccessControlUnauthorizedAccount","inputs":[{"name":"account","type":"address","internalType":"address"},{"name":"neededRole","type":"bytes32","internalType":"bytes32"}]},{"type":"error","name":"FailedCall","inputs":[]},{"type":"error","name":"TimelockInsufficientDelay","inputs":[{"name":"delay","type":"uint256","internalType":"uint256"},{"name":"minDelay","type":"uint256","internalType":"uint256"}]},{"type":"error","name":"TimelockInvalidOperationLength","inputs":[{"name":"targets","type":"uint256","internalType":"uint256"},{"name":"payloads","type":"uint256","internalType":"uint256"},{"name":"values","type":"uint256","internalType":"uint256"}]},{"type":"error","name":"TimelockUnauthorizedCaller","inputs":[{"name":"caller","type":"address","internalType":"address"}]},{"type":"error","name":"TimelockUnexecutedPredecessor","inputs":[{"name":"predecessorId","type":"bytes32","internalType":"bytes32"}]},{"type":"error","name":"TimelockUnexpectedOperationState","inputs":[{"name":"operationId","type":"bytes32","internalType":"bytes32"},{"name":"expectedStates","type":"bytes32","internalType":"bytes32"}]}],"bytecode":{"object":"0x608060405234801561000f575f5ffd5b506040516130cf3803806130cf83398181016040528101906100319190610536565b6100435f5f1b306101e960201b60201c565b505f73ffffffffffffffffffffffffffffffffffffffff168173ffffffffffffffffffffffffffffffffffffffff161461008b576100895f5f1b826101e960201b60201c565b505b5f5f90505b835181101561013a576100e37fb09aa5aeb3702cfd50b6b62bc4532604938f21248a27a1d5ca736082b6819cc18583815181106100d0576100cf6105d2565b5b60200260200101516101e960201b60201c565b5061012e7ffd643c72710c63c0180259aba6b2d05451e3591a24e58b62239378085726f78385838151811061011b5761011a6105d2565b5b60200260200101516101e960201b60201c565b50806001019050610090565b505f5f90505b825181101561019f576101937fd8aa0f3194971a2a116679f7c2090f6939c8d4e01a2a8d7e41d55e5351469e638483815181106101805761017f6105d2565b5b60200260200101516101e960201b60201c565b50806001019050610140565b50836002819055507f11c24f4ead16507c69ac467fbd5e4eed5fb5c699626d2cc6d66421df253886d55f856040516101d8929190610650565b60405180910390a150505050610677565b5f6101fa83836102de60201b60201c565b6102d45760015f5f8581526020019081526020015f205f015f8473ffffffffffffffffffffffffffffffffffffffff1673ffffffffffffffffffffffffffffffffffffffff1681526020019081526020015f205f6101000a81548160ff02191690831515021790555061027161034160201b60201c565b73ffffffffffffffffffffffffffffffffffffffff168273ffffffffffffffffffffffffffffffffffffffff16847f2f8788117e7eff1d82e926ec794901d17c78024a50270940304540a733656f0d60405160405180910390a4600190506102d8565b5f90505b92915050565b5f5f5f8481526020019081526020015f205f015f8373ffffffffffffffffffffffffffffffffffffffff1673ffffffffffffffffffffffffffffffffffffffff1681526020019081526020015f205f9054906101000a900460ff16905092915050565b5f33905090565b5f604051905090565b5f5ffd5b5f5ffd5b5f819050919050565b61036b81610359565b8114610375575f5ffd5b50565b5f8151905061038681610362565b92915050565b5f5ffd5b5f601f19601f8301169050919050565b7f4e487b71000000000000000000000000000000000000000000000000000000005f52604160045260245ffd5b6103d682610390565b810181811067ffffffffffffffff821117156103f5576103f46103a0565b5b80604052505050565b5f610407610348565b905061041382826103cd565b919050565b5f67ffffffffffffffff821115610432576104316103a0565b5b602082029050602081019050919050565b5f5ffd5b5f73ffffffffffffffffffffffffffffffffffffffff82169050919050565b5f61047082610447565b9050919050565b61048081610466565b811461048a575f5ffd5b50565b5f8151905061049b81610477565b92915050565b5f6104b36104ae84610418565b6103fe565b905080838252602082019050602084028301858111156104d6576104d5610443565b5b835b818110156104ff57806104eb888261048d565b8452602084019350506020810190506104d8565b5050509392505050565b5f82601f83011261051d5761051c61038c565b5b815161052d8482602086016104a1565b91505092915050565b5f5f5f5f6080858703121561054e5761054d610351565b5b5f61055b87828801610378565b945050602085015167ffffffffffffffff81111561057c5761057b610355565b5b61058887828801610509565b935050604085015167ffffffffffffffff8111156105a9576105a8610355565b5b6105b587828801610509565b92505060606105c68782880161048d565b91505092959194509250565b7f4e487b71000000000000000000000000000000000000000000000000000000005f52603260045260245ffd5b5f819050919050565b5f819050919050565b5f61062b610626610621846105ff565b610608565b610359565b9050919050565b61063b81610611565b82525050565b61064a81610359565b82525050565b5f6040820190506106635f830185610632565b6106706020830184610641565b9392505050565b612a4b806106845f395ff3fe6080604052600436106101ba575f3560e01c80638065657f116100eb578063bc197c8111610089578063d547741f11610063578063d547741f14610685578063e38335e5146106ad578063f23a6e61146106c9578063f27a0c9214610705576101c1565b8063bc197c81146105e5578063c4d252f514610621578063d45c443514610649576101c1565b806391d14854116100c557806391d1485414610519578063a217fddf14610555578063b08e51c01461057f578063b1c5f427146105a9576101c1565b80638065657f1461048b5780638f2a0bb0146104c75780638f61f4f5146104ef576101c1565b80632ab0f5291161015857806336568abe1161013257806336568abe146103c3578063584b153e146103eb57806364d62353146104275780637958004c1461044f576101c1565b80632ab0f529146103235780632f2ff15d1461035f57806331d5075014610387576101c1565b8063134008d311610194578063134008d31461025357806313bc9f201461026f578063150b7a02146102ab578063248a9ca3146102e7576101c1565b806301d5062a146101c557806301ffc9a7146101ed57806307bd026514610229576101c1565b366101c157005b5f5ffd5b3480156101d0575f5ffd5b506101eb60048036038101906101e69190611991565b61072f565b005b3480156101f8575f5ffd5b50610213600480360381019061020e9190611a90565b610804565b6040516102209190611ad5565b60405180910390f35b348015610234575f5ffd5b5061023d610815565b60405161024a9190611afd565b60405180910390f35b61026d60048036038101906102689190611b16565b610839565b005b34801561027a575f5ffd5b5061029560048036038101906102909190611bac565b6108f3565b6040516102a29190611ad5565b60405180910390f35b3480156102b6575f5ffd5b506102d160048036038101906102cc9190611d0f565b61092b565b6040516102de9190611d9e565b60405180910390f35b3480156102f2575f5ffd5b5061030d60048036038101906103089190611bac565b61093e565b60405161031a9190611afd565b60405180910390f35b34801561032e575f5ffd5b5061034960048036038101906103449190611bac565b61095a565b6040516103569190611ad5565b60405180910390f35b34801561036a575f5ffd5b5061038560048036038101906103809190611db7565b610991565b005b348015610392575f5ffd5b506103ad60048036038101906103a89190611bac565b6109b3565b6040516103ba9190611ad5565b60405180910390f35b3480156103ce575f5ffd5b506103e960048036038101906103e49190611db7565b6109eb565b005b3480156103f6575f5ffd5b50610411600480360381019061040c9190611bac565b610a66565b60405161041e9190611ad5565b60405180910390f35b348015610432575f5ffd5b5061044d60048036038101906104489190611df5565b610ad2565b005b34801561045a575f5ffd5b5061047560048036038101906104709190611bac565b610b93565b6040516104829190611e93565b60405180910390f35b348015610496575f5ffd5b506104b160048036038101906104ac9190611b16565b610bdf565b6040516104be9190611afd565b60405180910390f35b3480156104d2575f5ffd5b506104ed60048036038101906104e89190611fab565b610c1d565b005b3480156104fa575f5ffd5b50610503610ddf565b6040516105109190611afd565b60405180910390f35b348015610524575f5ffd5b5061053f600480360381019061053a9190611db7565b610e03565b60405161054c9190611ad5565b60405180910390f35b348015610560575f5ffd5b50610569610e66565b6040516105769190611afd565b60405180910390f35b34801561058a575f5ffd5b50610593610e6c565b6040516105a09190611afd565b60405180910390f35b3480156105b4575f5ffd5b506105cf60048036038101906105ca9190612094565b610e90565b6040516105dc9190611afd565b60405180910390f35b3480156105f0575f5ffd5b5061060b6004803603810190610606919061222b565b610ed4565b6040516106189190611d9e565b60405180910390f35b34801561062c575f5ffd5b5061064760048036038101906106429190611bac565b610ee8565b005b348015610654575f5ffd5b5061066f600480360381019061066a9190611bac565b610fb7565b60405161067c9190612305565b60405180910390f35b348015610690575f5ffd5b506106ab60048036038101906106a69190611db7565b610fd1565b005b6106c760048036038101906106c29190612094565b610ff3565b005b3480156106d4575f5ffd5b506106ef60048036038101906106ea919061231e565b6111ae565b6040516106fc9190611d9e565b60405180910390f35b348015610710575f5ffd5b506107196111c2565b6040516107269190612305565b60405180910390f35b7fb09aa5aeb3702cfd50b6b62bc4532604938f21248a27a1d5ca736082b6819cc1610759816111cb565b5f610768898989898989610bdf565b905061077481846111df565b5f817f4cf4410cc57040e44862ef0f45f3dd5a5e02db8eb8add648d4b0e236f1d07dca8b8b8b8b8b8a6040516107af969594939291906123fc565b60405180910390a35f5f1b84146107f957807f20fda5fd27a1ea7bf5b9567f143ac5470bb059374a27e8f67cb44f946f6d0387856040516107f09190611afd565b60405180910390a25b505050505050505050565b5f61080e826112ac565b9050919050565b7fd8aa0f3194971a2a116679f7c2090f6939c8d4e01a2a8d7e41d55e5351469e6381565b7fd8aa0f3194971a2a116679f7c2090f6939c8d4e01a2a8d7e41d55e5351469e63610864815f610e03565b61087a5761087981610874611325565b61132c565b5b5f610889888888888888610bdf565b9050610895818561137d565b6108a188888888611430565b5f817fc2617efa69bab66782fa219543714338489c4e9e178271560a91b82c3f612b588a8a8a8a6040516108d89493929190612456565b60405180910390a36108e9816114b1565b5050505050505050565b5f6002600381111561090857610907611e20565b5b61091183610b93565b600381111561092357610922611e20565b5b149050919050565b5f63150b7a0260e01b9050949350505050565b5f5f5f8381526020019081526020015f20600101549050919050565b5f60038081111561096e5761096d611e20565b5b61097783610b93565b600381111561098957610988611e20565b5b149050919050565b61099a8261093e565b6109a3816111cb565b6109ad838361151f565b50505050565b5f5f60038111156109c7576109c6611e20565b5b6109d083610b93565b60038111156109e2576109e1611e20565b5b14159050919050565b6109f3611325565b73ffffffffffffffffffffffffffffffffffffffff168173ffffffffffffffffffffffffffffffffffffffff1614610a57576040517f6697b23200000000000000000000000000000000000000000000000000000000815260040160405180910390fd5b610a618282611608565b505050565b5f5f610a7183610b93565b905060016003811115610a8757610a86611e20565b5b816003811115610a9a57610a99611e20565b5b1480610aca575060026003811115610ab557610ab4611e20565b5b816003811115610ac857610ac7611e20565b5b145b915050919050565b5f610adb611325565b90503073ffffffffffffffffffffffffffffffffffffffff168173ffffffffffffffffffffffffffffffffffffffff1614610b4d57806040517fe2850c59000000000000000000000000000000000000000000000000000000008152600401610b449190612494565b60405180910390fd5b7f11c24f4ead16507c69ac467fbd5e4eed5fb5c699626d2cc6d66421df253886d560025483604051610b809291906124ad565b60405180910390a1816002819055505050565b5f5f610b9e83610fb7565b90505f8103610bb0575f915050610bda565b60018103610bc2576003915050610bda565b42811115610bd4576001915050610bda565b60029150505b919050565b5f868686868686604051602001610bfb969594939291906124d4565b6040516020818303038152906040528051906020012090509695505050505050565b7fb09aa5aeb3702cfd50b6b62bc4532604938f21248a27a1d5ca736082b6819cc1610c47816111cb565b878790508a8a9050141580610c625750858590508a8a905014155b15610cb1578989905086869050898990506040517fffb03211000000000000000000000000000000000000000000000000000000008152600401610ca89392919061252e565b60405180910390fd5b5f610cc28b8b8b8b8b8b8b8b610e90565b9050610cce81846111df565b5f5f90505b8b8b9050811015610d8f5780827f4cf4410cc57040e44862ef0f45f3dd5a5e02db8eb8add648d4b0e236f1d07dca8e8e85818110610d1457610d13612563565b5b9050602002016020810190610d299190612590565b8d8d86818110610d3c57610d3b612563565b5b905060200201358c8c87818110610d5657610d55612563565b5b9050602002810190610d6891906125c7565b8c8b604051610d7c969594939291906123fc565b60405180910390a3806001019050610cd3565b505f5f1b8414610dd257807f20fda5fd27a1ea7bf5b9567f143ac5470bb059374a27e8f67cb44f946f6d038785604051610dc99190611afd565b60405180910390a25b5050505050505050505050565b7fb09aa5aeb3702cfd50b6b62bc4532604938f21248a27a1d5ca736082b6819cc181565b5f5f5f8481526020019081526020015f205f015f8373ffffffffffffffffffffffffffffffffffffffff1673ffffffffffffffffffffffffffffffffffffffff1681526020019081526020015f205f9054906101000a900460ff16905092915050565b5f5f1b81565b7ffd643c72710c63c0180259aba6b2d05451e3591a24e58b62239378085726f78381565b5f8888888888888888604051602001610eb09897969594939291906128b5565b60405160208183030381529060405280519060200120905098975050505050505050565b5f63bc197c8160e01b905095945050505050565b7ffd643c72710c63c0180259aba6b2d05451e3591a24e58b62239378085726f783610f12816111cb565b610f1b82610a66565b610f725781610f2a60026116f1565b610f3460016116f1565b176040517f5ead8eb5000000000000000000000000000000000000000000000000000000008152600401610f69929190612921565b60405180910390fd5b60015f8381526020019081526020015f205f9055817fbaa1eb22f2a492ba1a5fea61b8df4d27c6c8b5f3971e63bb58fa14ff72eedb7060405160405180910390a25050565b5f60015f8381526020019081526020015f20549050919050565b610fda8261093e565b610fe3816111cb565b610fed8383611608565b50505050565b7fd8aa0f3194971a2a116679f7c2090f6939c8d4e01a2a8d7e41d55e5351469e6361101e815f610e03565b611034576110338161102e611325565b61132c565b5b868690508989905014158061104f5750848490508989905014155b1561109e578888905085859050888890506040517fffb032110000000000000000000000000000000000000000000000000000000081526004016110959392919061252e565b60405180910390fd5b5f6110af8a8a8a8a8a8a8a8a610e90565b90506110bb818561137d565b5f5f90505b8a8a9050811015611198575f8b8b838181106110df576110de612563565b5b90506020020160208101906110f49190612590565b90505f8a8a8481811061110a57611109612563565b5b905060200201359050365f8a8a8681811061112857611127612563565b5b905060200281019061113a91906125c7565b9150915061114a84848484611430565b84867fc2617efa69bab66782fa219543714338489c4e9e178271560a91b82c3f612b58868686866040516111819493929190612456565b60405180910390a3505050508060010190506110c0565b506111a2816114b1565b50505050505050505050565b5f63f23a6e6160e01b905095945050505050565b5f600254905090565b6111dc816111d7611325565b61132c565b50565b6111e8826109b3565b1561123457816111f75f6116f1565b6040517f5ead8eb500000000000000000000000000000000000000000000000000000000815260040161122b929190612921565b60405180910390fd5b5f61123d6111c2565b9050808210156112865781816040517f5433660900000000000000000000000000000000000000000000000000000000815260040161127d9291906124ad565b60405180910390fd5b81426112929190612975565b60015f8581526020019081526020015f2081905550505050565b5f7f4e2312e0000000000000000000000000000000000000000000000000000000007bffffffffffffffffffffffffffffffffffffffffffffffffffffffff1916827bffffffffffffffffffffffffffffffffffffffffffffffffffffffff1916148061131e575061131d82611715565b5b9050919050565b5f33905090565b6113368282610e03565b6113795780826040517fe2517d3f0000000000000000000000000000000000000000000000000000000081526004016113709291906129a8565b60405180910390fd5b5050565b611386826108f3565b6113d2578161139560026116f1565b6040517f5ead8eb50000000000000000000000000000000000000000000000000000000081526004016113c9929190612921565b60405180910390fd5b5f5f1b81141580156113ea57506113e88161095a565b155b1561142c57806040517f90a9a6180000000000000000000000000000000000000000000000000000000081526004016114239190611afd565b60405180910390fd5b5050565b5f5f8573ffffffffffffffffffffffffffffffffffffffff1685858560405161145a9291906129fd565b5f6040518083038185875af1925050503d805f8114611494576040519150601f19603f3d011682016040523d82523d5f602084013e611499565b606091505b50915091506114a8828261178e565b50505050505050565b6114ba816108f3565b61150657806114c960026116f1565b6040517f5ead8eb50000000000000000000000000000000000000000000000000000000081526004016114fd929190612921565b60405180910390fd5b6001805f8381526020019081526020015f208190555050565b5f61152a8383610e03565b6115fe5760015f5f8581526020019081526020015f205f015f8473ffffffffffffffffffffffffffffffffffffffff1673ffffffffffffffffffffffffffffffffffffffff1681526020019081526020015f205f6101000a81548160ff02191690831515021790555061159b611325565b73ffffffffffffffffffffffffffffffffffffffff168273ffffffffffffffffffffffffffffffffffffffff16847f2f8788117e7eff1d82e926ec794901d17c78024a50270940304540a733656f0d60405160405180910390a460019050611602565b5f90505b92915050565b5f6116138383610e03565b156116e7575f5f5f8581526020019081526020015f205f015f8473ffffffffffffffffffffffffffffffffffffffff1673ffffffffffffffffffffffffffffffffffffffff1681526020019081526020015f205f6101000a81548160ff021916908315150217905550611684611325565b73ffffffffffffffffffffffffffffffffffffffff168273ffffffffffffffffffffffffffffffffffffffff16847ff6391f5c32d9c69d2a47ea670b442974b53935d1edc7fd64eb21e047a839171b60405160405180910390a4600190506116eb565b5f90505b92915050565b5f81600381111561170557611704611e20565b5b60ff166001901b5f1b9050919050565b5f7f7965db0b000000000000000000000000000000000000000000000000000000007bffffffffffffffffffffffffffffffffffffffffffffffffffffffff1916827bffffffffffffffffffffffffffffffffffffffffffffffffffffffff191614806117875750611786826117ee565b5b9050919050565b6060821561179e578190506117e8565b5f825111156117b5576117b082611857565b6117e7565b6040517fd6bda27500000000000000000000000000000000000000000000000000000000815260040160405180910390fd5b5b92915050565b5f7f01ffc9a7000000000000000000000000000000000000000000000000000000007bffffffffffffffffffffffffffffffffffffffffffffffffffffffff1916827bffffffffffffffffffffffffffffffffffffffffffffffffffffffff1916149050919050565b805160208201fd5b5f604051905090565b5f5ffd5b5f5ffd5b5f73ffffffffffffffffffffffffffffffffffffffff82169050919050565b5f61189982611870565b9050919050565b6118a98161188f565b81146118b3575f5ffd5b50565b5f813590506118c4816118a0565b92915050565b5f819050919050565b6118dc816118ca565b81146118e6575f5ffd5b50565b5f813590506118f7816118d3565b92915050565b5f5ffd5b5f5ffd5b5f5ffd5b5f5f83601f84011261191e5761191d6118fd565b5b8235905067ffffffffffffffff81111561193b5761193a611901565b5b60208301915083600182028301111561195757611956611905565b5b9250929050565b5f819050919050565b6119708161195e565b811461197a575f5ffd5b50565b5f8135905061198b81611967565b92915050565b5f5f5f5f5f5f5f60c0888a0312156119ac576119ab611868565b5b5f6119b98a828b016118b6565b97505060206119ca8a828b016118e9565b965050604088013567ffffffffffffffff8111156119eb576119ea61186c565b5b6119f78a828b01611909565b95509550506060611a0a8a828b0161197d565b9350506080611a1b8a828b0161197d565b92505060a0611a2c8a828b016118e9565b91505092959891949750929550565b5f7fffffffff0000000000000000000000000000000000000000000000000000000082169050919050565b611a6f81611a3b565b8114611a79575f5ffd5b50565b5f81359050611a8a81611a66565b92915050565b5f60208284031215611aa557611aa4611868565b5b5f611ab284828501611a7c565b91505092915050565b5f8115159050919050565b611acf81611abb565b82525050565b5f602082019050611ae85f830184611ac6565b92915050565b611af78161195e565b82525050565b5f602082019050611b105f830184611aee565b92915050565b5f5f5f5f5f5f60a08789031215611b3057611b2f611868565b5b5f611b3d89828a016118b6565b9650506020611b4e89828a016118e9565b955050604087013567ffffffffffffffff811115611b6f57611b6e61186c565b5b611b7b89828a01611909565b94509450506060611b8e89828a0161197d565b9250506080611b9f89828a0161197d565b9150509295509295509295565b5f60208284031215611bc157611bc0611868565b5b5f611bce8482850161197d565b91505092915050565b5f5ffd5b5f601f19601f8301169050919050565b7f4e487b71000000000000000000000000000000000000000000000000000000005f52604160045260245ffd5b611c2182611bdb565b810181811067ffffffffffffffff82111715611c4057611c3f611beb565b5b80604052505050565b5f611c5261185f565b9050611c5e8282611c18565b919050565b5f67ffffffffffffffff821115611c7d57611c7c611beb565b5b611c8682611bdb565b9050602081019050919050565b828183375f83830152505050565b5f611cb3611cae84611c63565b611c49565b905082815260208101848484011115611ccf57611cce611bd7565b5b611cda848285611c93565b509392505050565b5f82601f830112611cf657611cf56118fd565b5b8135611d06848260208601611ca1565b91505092915050565b5f5f5f5f60808587031215611d2757611d26611868565b5b5f611d34878288016118b6565b9450506020611d45878288016118b6565b9350506040611d56878288016118e9565b925050606085013567ffffffffffffffff811115611d7757611d7661186c565b5b611d8387828801611ce2565b91505092959194509250565b611d9881611a3b565b82525050565b5f602082019050611db15f830184611d8f565b92915050565b5f5f60408385031215611dcd57611dcc611868565b5b5f611dda8582860161197d565b9250506020611deb858286016118b6565b9150509250929050565b5f60208284031215611e0a57611e09611868565b5b5f611e17848285016118e9565b91505092915050565b7f4e487b71000000000000000000000000000000000000000000000000000000005f52602160045260245ffd5b60048110611e5e57611e5d611e20565b5b50565b5f819050611e6e82611e4d565b919050565b5f611e7d82611e61565b9050919050565b611e8d81611e73565b82525050565b5f602082019050611ea65f830184611e84565b92915050565b5f5f83601f840112611ec157611ec06118fd565b5b8235905067ffffffffffffffff811115611ede57611edd611901565b5b602083019150836020820283011115611efa57611ef9611905565b5b9250929050565b5f5f83601f840112611f1657611f156118fd565b5b8235905067ffffffffffffffff811115611f3357611f32611901565b5b602083019150836020820283011115611f4f57611f4e611905565b5b9250929050565b5f5f83601f840112611f6b57611f6a6118fd565b5b8235905067ffffffffffffffff811115611f8857611f87611901565b5b602083019150836020820283011115611fa457611fa3611905565b5b9250929050565b5f5f5f5f5f5f5f5f5f60c08a8c031215611fc857611fc7611868565b5b5f8a013567ffffffffffffffff811115611fe557611fe461186c565b5b611ff18c828d01611eac565b995099505060208a013567ffffffffffffffff8111156120145761201361186c565b5b6120208c828d01611f01565b975097505060408a013567ffffffffffffffff8111156120435761204261186c565b5b61204f8c828d01611f56565b955095505060606120628c828d0161197d565b93505060806120738c828d0161197d565b92505060a06120848c828d016118e9565b9150509295985092959850929598565b5f5f5f5f5f5f5f5f60a0898b0312156120b0576120af611868565b5b5f89013567ffffffffffffffff8111156120cd576120cc61186c565b5b6120d98b828c01611eac565b9850985050602089013567ffffffffffffffff8111156120fc576120fb61186c565b5b6121088b828c01611f01565b9650965050604089013567ffffffffffffffff81111561212b5761212a61186c565b5b6121378b828c01611f56565b9450945050606061214a8b828c0161197d565b925050608061215b8b828c0161197d565b9150509295985092959890939650565b5f67ffffffffffffffff82111561218557612184611beb565b5b602082029050602081019050919050565b5f6121a86121a38461216b565b611c49565b905080838252602082019050602084028301858111156121cb576121ca611905565b5b835b818110156121f457806121e088826118e9565b8452602084019350506020810190506121cd565b5050509392505050565b5f82601f830112612212576122116118fd565b5b8135612222848260208601612196565b91505092915050565b5f5f5f5f5f60a0868803121561224457612243611868565b5b5f612251888289016118b6565b9550506020612262888289016118b6565b945050604086013567ffffffffffffffff8111156122835761228261186c565b5b61228f888289016121fe565b935050606086013567ffffffffffffffff8111156122b0576122af61186c565b5b6122bc888289016121fe565b925050608086013567ffffffffffffffff8111156122dd576122dc61186c565b5b6122e988828901611ce2565b9150509295509295909350565b6122ff816118ca565b82525050565b5f6020820190506123185f8301846122f6565b92915050565b5f5f5f5f5f60a0868803121561233757612336611868565b5b5f612344888289016118b6565b9550506020612355888289016118b6565b9450506040612366888289016118e9565b9350506060612377888289016118e9565b925050608086013567ffffffffffffffff8111156123985761239761186c565b5b6123a488828901611ce2565b9150509295509295909350565b6123ba8161188f565b82525050565b5f82825260208201905092915050565b5f6123db83856123c0565b93506123e8838584611c93565b6123f183611bdb565b840190509392505050565b5f60a08201905061240f5f8301896123b1565b61241c60208301886122f6565b818103604083015261242f8186886123d0565b905061243e6060830185611aee565b61244b60808301846122f6565b979650505050505050565b5f6060820190506124695f8301876123b1565b61247660208301866122f6565b81810360408301526124898184866123d0565b905095945050505050565b5f6020820190506124a75f8301846123b1565b92915050565b5f6040820190506124c05f8301856122f6565b6124cd60208301846122f6565b9392505050565b5f60a0820190506124e75f8301896123b1565b6124f460208301886122f6565b81810360408301526125078186886123d0565b90506125166060830185611aee565b6125236080830184611aee565b979650505050505050565b5f6060820190506125415f8301866122f6565b61254e60208301856122f6565b61255b60408301846122f6565b949350505050565b7f4e487b71000000000000000000000000000000000000000000000000000000005f52603260045260245ffd5b5f602082840312156125a5576125a4611868565b5b5f6125b2848285016118b6565b91505092915050565b5f5ffd5b5f5ffd5b5f5ffd5b5f5f833560016020038436030381126125e3576125e26125bb565b5b80840192508235915067ffffffffffffffff821115612605576126046125bf565b5b602083019250600182023603831315612621576126206125c3565b5b509250929050565b5f82825260208201905092915050565b5f819050919050565b61264b8161188f565b82525050565b5f61265c8383612642565b60208301905092915050565b5f61267660208401846118b6565b905092915050565b5f602082019050919050565b5f6126958385612629565b93506126a082612639565b805f5b858110156126d8576126b58284612668565b6126bf8882612651565b97506126ca8361267e565b9250506001810190506126a3565b5085925050509392505050565b5f82825260208201905092915050565b5f5ffd5b82818337505050565b5f61270d83856126e5565b93507f07ffffffffffffffffffffffffffffffffffffffffffffffffffffffffffffff8311156127405761273f6126f5565b5b6020830292506127518385846126f9565b82840190509392505050565b5f82825260208201905092915050565b5f819050919050565b5f82825260208201905092915050565b5f6127918385612776565b935061279e838584611c93565b6127a783611bdb565b840190509392505050565b5f6127be848484612786565b90509392505050565b5f5ffd5b5f5ffd5b5f5ffd5b5f5f833560016020038436030381126127ef576127ee6127cf565b5b83810192508235915060208301925067ffffffffffffffff821115612817576128166127c7565b5b60018202360383131561282d5761282c6127cb565b5b509250929050565b5f602082019050919050565b5f61284c838561275d565b93508360208402850161285e8461276d565b805f5b878110156128a357848403895261287882846127d3565b6128838682846127b2565b955061288e84612835565b935060208b019a505050600181019050612861565b50829750879450505050509392505050565b5f60a0820190508181035f8301526128ce818a8c61268a565b905081810360208301526128e381888a612702565b905081810360408301526128f8818688612841565b90506129076060830185611aee565b6129146080830184611aee565b9998505050505050505050565b5f6040820190506129345f830185611aee565b6129416020830184611aee565b9392505050565b7f4e487b71000000000000000000000000000000000000000000000000000000005f52601160045260245ffd5b5f61297f826118ca565b915061298a836118ca565b92508282019050808211156129a2576129a1612948565b5b92915050565b5f6040820190506129bb5f8301856123b1565b6129c86020830184611aee565b9392505050565b5f81905092915050565b5f6129e483856129cf565b93506129f1838584611c93565b82840190509392505050565b5f612a098284866129d9565b9150819050939250505056fea2646970667358221220284d9bebe26eacfc536da31881b59e9fd675cf4dead6fc24457dd327f0b37d9764736f6c63430008210033","linkReferences":{}},"methodIdentifiers":{"CANCELLER_ROLE()":"b08e51c0","DEFAULT_ADMIN_ROLE()":"a217fddf","EXECUTOR_ROLE()":"07bd0265","PROPOSER_ROLE()":"8f61f4f5","cancel(bytes32)":"c4d252f5","execute(address,uint256,bytes,bytes32,bytes32)":"134008d3","executeBatch(address[],uint256[],bytes[],bytes32,bytes32)":"e38335e5","getMinDelay()":"f27a0c92","getOperationState(bytes32)":"7958004c","getRoleAdmin(bytes32)":"248a9ca3","getTimestamp(bytes32)":"d45c4435","grantRole(bytes32,address)":"2f2ff15d","hasRole(bytes32,address)":"91d14854","hashOperation(address,uint256,bytes,bytes32,bytes32)":"8065657f","hashOperationBatch(address[],uint256[],bytes[],bytes32,bytes32)":"b1c5f427","isOperation(bytes32)":"31d50750","isOperationDone(bytes32)":"2ab0f529","isOperationPending(bytes32)":"584b153e","isOperationReady(bytes32)":"13bc9f20","onERC1155BatchReceived(address,address,uint256[],uint256[],bytes)":"bc197c81","onERC1155Received(address,address,uint256,uint256,bytes)":"f23a6e61","onERC721Received(address,address,uint256,bytes)":"150b7a02","renounceRole(bytes32,address)":"36568abe","revokeRole(bytes32,address)":"d547741f","schedule(address,uint256,bytes,bytes32,bytes32,uint256)":"01d5062a","scheduleBatch(address[],uint256[],bytes[],bytes32,bytes32,uint256)":"8f2a0bb0","supportsInterface(bytes4)":"01ffc9a7","updateDelay(uint256)":"64d62353"},"id":3}