{
  "_format": "hh3-artifact-1",
  "contractName": "ArcanaSovereign",
  "sourceName": "contracts/ArcanaSovereign.sol",
  "abi": [
    {
      "inputs": [],
      "stateMutability": "nonpayable",
      "type": "constructor"
    },
    {
      "anonymous": false,
      "inputs": [
        {
          "indexed": true,
          "internalType": "address",
          "name": "owner",
          "type": "address"
        },
        {
          "indexed": true,
          "internalType": "address",
          "name": "spender",
          "type": "address"
        },
        {
          "indexed": false,
          "internalType": "uint256",
          "name": "value",
          "type": "uint256"
        }
      ],
      "name": "Approval",
      "type": "event"
    },
    {
      "anonymous": false,
      "inputs": [
        {
          "indexed": true,
          "internalType": "address",
          "name": "from",
          "type": "address"
        },
        {
          "indexed": true,
          "internalType": "address",
          "name": "to",
          "type": "address"
        },
        {
          "indexed": false,
          "internalType": "uint256",
          "name": "value",
          "type": "uint256"
        }
      ],
      "name": "Transfer",
      "type": "event"
    },
    {
      "inputs": [
        {
          "internalType": "address",
          "name": "",
          "type": "address"
        },
        {
          "internalType": "address",
          "name": "",
          "type": "address"
        }
      ],
      "name": "allowance",
      "outputs": [
        {
          "internalType": "uint256",
          "name": "",
          "type": "uint256"
        }
      ],
      "stateMutability": "view",
      "type": "function"
    },
    {
      "inputs": [
        {
          "internalType": "address",
          "name": "spender",
          "type": "address"
        },
        {
          "internalType": "uint256",
          "name": "value",
          "type": "uint256"
        }
      ],
      "name": "approve",
      "outputs": [
        {
          "internalType": "bool",
          "name": "success",
          "type": "bool"
        }
      ],
      "stateMutability": "nonpayable",
      "type": "function"
    },
    {
      "inputs": [
        {
          "internalType": "address",
          "name": "",
          "type": "address"
        }
      ],
      "name": "balanceOf",
      "outputs": [
        {
          "internalType": "uint256",
          "name": "",
          "type": "uint256"
        }
      ],
      "stateMutability": "view",
      "type": "function"
    },
    {
      "inputs": [],
      "name": "decimals",
      "outputs": [
        {
          "internalType": "uint8",
          "name": "",
          "type": "uint8"
        }
      ],
      "stateMutability": "view",
      "type": "function"
    },
    {
      "inputs": [],
      "name": "name",
      "outputs": [
        {
          "internalType": "string",
          "name": "",
          "type": "string"
        }
      ],
      "stateMutability": "view",
      "type": "function"
    },
    {
      "inputs": [],
      "name": "owner",
      "outputs": [
        {
          "internalType": "address",
          "name": "",
          "type": "address"
        }
      ],
      "stateMutability": "view",
      "type": "function"
    },
    {
      "inputs": [],
      "name": "symbol",
      "outputs": [
        {
          "internalType": "string",
          "name": "",
          "type": "string"
        }
      ],
      "stateMutability": "view",
      "type": "function"
    },
    {
      "inputs": [],
      "name": "totalSupply",
      "outputs": [
        {
          "internalType": "uint256",
          "name": "",
          "type": "uint256"
        }
      ],
      "stateMutability": "view",
      "type": "function"
    },
    {
      "inputs": [
        {
          "internalType": "address",
          "name": "to",
          "type": "address"
        },
        {
          "internalType": "uint256",
          "name": "value",
          "type": "uint256"
        }
      ],
      "name": "transfer",
      "outputs": [
        {
          "internalType": "bool",
          "name": "success",
          "type": "bool"
        }
      ],
      "stateMutability": "nonpayable",
      "type": "function"
    },
    {
      "inputs": [
        {
          "internalType": "address",
          "name": "from",
          "type": "address"
        },
        {
          "internalType": "address",
          "name": "to",
          "type": "address"
        },
        {
          "internalType": "uint256",
          "name": "value",
          "type": "uint256"
        }
      ],
      "name": "transferFrom",
      "outputs": [
        {
          "internalType": "bool",
          "name": "success",
          "type": "bool"
        }
      ],
      "stateMutability": "nonpayable",
      "type": "function"
    }
  ],
  "bytecode": "0x60c0604052601060809081526f20b931b0b7309029b7bb32b932b4b3b760811b60a05260009061002f9082610150565b506040805180820190915260058152644152432d5360d81b60208201526001906100599082610150565b506002805460ff191660121790556b033b2e3c9fd0803ce800000060035534801561008357600080fd5b50600480546001600160a01b031916339081179091556003546000918252600560205260409091205561020f565b634e487b7160e01b600052604160045260246000fd5b600181811c908216806100db57607f821691505b6020821081036100fb57634e487b7160e01b600052602260045260246000fd5b50919050565b601f82111561014b57600081815260208120601f850160051c810160208610156101285750805b601f850160051c820191505b8181101561014757828155600101610134565b5050505b505050565b81516001600160401b03811115610169576101696100b1565b61017d8161017784546100c7565b84610101565b602080601f8311600181146101b2576000841561019a5750858301515b600019600386901b1c1916600185901b178555610147565b600085815260208120601f198616915b828110156101e1578886015182559484019460019091019084016101c2565b50858210156101ff5787850151600019600388901b60f8161c191681555b5050505050600190811b01905550565b6107368061021e6000396000f3fe608060405234801561001057600080fd5b506004361061009e5760003560e01c806370a082311161006657806370a082311461012d5780638da5cb5b1461014d57806395d89b4114610178578063a9059cbb14610180578063dd62ed3e1461019357600080fd5b806306fdde03146100a3578063095ea7b3146100c157806318160ddd146100e457806323b872dd146100fb578063313ce5671461010e575b600080fd5b6100ab6101be565b6040516100b89190610565565b60405180910390f35b6100d46100cf3660046105cf565b61024c565b60405190151581526020016100b8565b6100ed60035481565b6040519081526020016100b8565b6100d46101093660046105f9565b6102b9565b60025461011b9060ff1681565b60405160ff90911681526020016100b8565b6100ed61013b366004610635565b60056020526000908152604090205481565b600454610160906001600160a01b031681565b6040516001600160a01b0390911681526020016100b8565b6100ab610474565b6100d461018e3660046105cf565b610481565b6100ed6101a1366004610657565b600660209081526000928352604080842090915290825290205481565b600080546101cb9061068a565b80601f01602080910402602001604051908101604052809291908181526020018280546101f79061068a565b80156102445780601f1061021957610100808354040283529160200191610244565b820191906000526020600020905b81548152906001019060200180831161022757829003601f168201915b505050505081565b3360008181526006602090815260408083206001600160a01b038716808552925280832085905551919290917f8c5be1e5ebec7d5bd14f71427d1e84f3dd0314c0f7b2291e5b200ac8c7c3b925906102a79086815260200190565b60405180910390a35060015b92915050565b6001600160a01b03831660009081526005602052604081205482111561031d5760405162461bcd60e51b8152602060048201526014602482015273496e73756666696369656e742062616c616e636560601b60448201526064015b60405180910390fd5b6001600160a01b03841660009081526006602090815260408083203384529091529020548211156103895760405162461bcd60e51b8152602060048201526016602482015275496e73756666696369656e7420616c6c6f77616e636560501b6044820152606401610314565b6001600160a01b038416600090815260056020526040812080548492906103b19084906106da565b90915550506001600160a01b038316600090815260056020526040812080548492906103de9084906106ed565b90915550506001600160a01b0384166000908152600660209081526040808320338452909152812080548492906104169084906106da565b92505081905550826001600160a01b0316846001600160a01b03167fddf252ad1be2c89b69c2b068fc378daa952ba7f163c4a11628f55a4df523b3ef8460405161046291815260200190565b60405180910390a35060019392505050565b600180546101cb9061068a565b336000908152600560205260408120548211156104d75760405162461bcd60e51b8152602060048201526014602482015273496e73756666696369656e742062616c616e636560601b6044820152606401610314565b33600090815260056020526040812080548492906104f69084906106da565b90915550506001600160a01b038316600090815260056020526040812080548492906105239084906106ed565b90915550506040518281526001600160a01b0384169033907fddf252ad1be2c89b69c2b068fc378daa952ba7f163c4a11628f55a4df523b3ef906020016102a7565b600060208083528351808285015260005b8181101561059257858101830151858201604001528201610576565b506000604082860101526040601f19601f8301168501019250505092915050565b80356001600160a01b03811681146105ca57600080fd5b919050565b600080604083850312156105e257600080fd5b6105eb836105b3565b946020939093013593505050565b60008060006060848603121561060e57600080fd5b610617846105b3565b9250610625602085016105b3565b9150604084013590509250925092565b60006020828403121561064757600080fd5b610650826105b3565b9392505050565b6000806040838503121561066a57600080fd5b610673836105b3565b9150610681602084016105b3565b90509250929050565b600181811c9082168061069e57607f821691505b6020821081036106be57634e487b7160e01b600052602260045260246000fd5b50919050565b634e487b7160e01b600052601160045260246000fd5b818103818111156102b3576102b36106c4565b808201808211156102b3576102b36106c456fea2646970667358221220f65c4ee930ddabb5b23e2fbfe24141a0db025e0520ab31eb2331d15031522a2b64736f6c63430008140033",
  "linkReferences": {},
  "deployedLinkReferences": {},
  "immutableReferences": {},
  "inputSourceName": "project/contracts/ArcanaSovereign.sol",
  "buildInfoId": "solc-0_8_20-e24155be5cf58a8be56c9ceee4fe2ad8d98da9d8"
}