{"abi":[{"type":"constructor","inputs":[{"name":"_ccTokenAddress","type":"address","internalType":"address"}],"stateMutability":"nonpayable"},{"type":"function","name":"BURN_ADDRESS","inputs":[],"outputs":[{"name":"","type":"address","internalType":"address"}],"stateMutability":"view"},{"type":"function","name":"SACRIFICE_AMOUNT","inputs":[],"outputs":[{"name":"","type":"uint256","internalType":"uint256"}],"stateMutability":"view"},{"type":"function","name":"ccToken","inputs":[],"outputs":[{"name":"","type":"address","internalType":"contract ICCPrivate"}],"stateMutability":"view"},{"type":"function","name":"isCitizen","inputs":[{"name":"","type":"address","internalType":"address"}],"outputs":[{"name":"","type":"bool","internalType":"bool"}],"stateMutability":"view"},{"type":"function","name":"performSacrifice","inputs":[],"outputs":[],"stateMutability":"nonpayable"},{"type":"function","name":"totalCitizens","inputs":[],"outputs":[{"name":"","type":"uint256","internalType":"uint256"}],"stateMutability":"view"},{"type":"event","name":"Naturalized","inputs":[{"name":"citizen","type":"address","indexed":true,"internalType":"address"},{"name":"timestamp","type":"uint256","indexed":false,"internalType":"uint256"}],"anonymous":false}],"bytecode":{"object":"0x608060405234801561000f575f5ffd5b506040516109e13803806109e1833981810160405281019061003191906100d4565b805f5f6101000a81548173ffffffffffffffffffffffffffffffffffffffff021916908373ffffffffffffffffffffffffffffffffffffffff160217905550506100ff565b5f5ffd5b5f73ffffffffffffffffffffffffffffffffffffffff82169050919050565b5f6100a38261007a565b9050919050565b6100b381610099565b81146100bd575f5ffd5b50565b5f815190506100ce816100aa565b92915050565b5f602082840312156100e9576100e8610076565b5b5f6100f6848285016100c0565b91505092915050565b6108d58061010c5f395ff3fe608060405234801561000f575f5ffd5b5060043610610060575f3560e01c80633f788a88146100645780635c7995b41461006e578063bd7b09e41461008c578063f3caad03146100aa578063f873575d146100da578063fccc2813146100f8575b5f5ffd5b61006c610116565b005b610076610423565b60405161008391906104f5565b60405180910390f35b610094610447565b6040516100a19190610526565b60405180910390f35b6100c460048036038101906100bf919061057e565b61044d565b6040516100d191906105c3565b60405180910390f35b6100e261046a565b6040516100ef9190610526565b60405180910390f35b610100610477565b60405161010d91906105eb565b60405180910390f35b60015f3373ffffffffffffffffffffffffffffffffffffffff1673ffffffffffffffffffffffffffffffffffffffff1681526020019081526020015f205f9054906101000a900460ff16156101a0576040517f08c379a00000000000000000000000000000000000000000000000000000000081526004016101979061065e565b60405180910390fd5b68056bc75e2d631000005f5f9054906101000a900473ffffffffffffffffffffffffffffffffffffffff1673ffffffffffffffffffffffffffffffffffffffff166370a08231336040518263ffffffff1660e01b815260040161020391906105eb565b602060405180830381865afa15801561021e573d5f5f3e3d5ffd5b505050506040513d601f19601f8201168201806040525081019061024291906106a6565b1015610283576040517f08c379a000000000000000000000000000000000000000000000000000000000815260040161027a9061071b565b60405180910390fd5b5f5f9054906101000a900473ffffffffffffffffffffffffffffffffffffffff1673ffffffffffffffffffffffffffffffffffffffff166323b872dd335f68056bc75e2d631000006040518463ffffffff1660e01b81526004016102e993929190610739565b6020604051808303815f875af1158015610305573d5f5f3e3d5ffd5b505050506040513d601f19601f820116820180604052508101906103299190610798565b610368576040517f08c379a000000000000000000000000000000000000000000000000000000000815260040161035f9061080d565b60405180910390fd5b6001805f3373ffffffffffffffffffffffffffffffffffffffff1673ffffffffffffffffffffffffffffffffffffffff1681526020019081526020015f205f6101000a81548160ff02191690831515021790555060025f8154809291906103ce90610858565b91905055503373ffffffffffffffffffffffffffffffffffffffff167f04199342ce6872656761cd4ecbf0c7d377dc6114e642bc738a19c568ce0572a3426040516104199190610526565b60405180910390a2565b5f5f9054906101000a900473ffffffffffffffffffffffffffffffffffffffff1681565b60025481565b6001602052805f5260405f205f915054906101000a900460ff1681565b68056bc75e2d6310000081565b5f81565b5f73ffffffffffffffffffffffffffffffffffffffff82169050919050565b5f819050919050565b5f6104bd6104b86104b38461047b565b61049a565b61047b565b9050919050565b5f6104ce826104a3565b9050919050565b5f6104df826104c4565b9050919050565b6104ef816104d5565b82525050565b5f6020820190506105085f8301846104e6565b92915050565b5f819050919050565b6105208161050e565b82525050565b5f6020820190506105395f830184610517565b92915050565b5f5ffd5b5f61054d8261047b565b9050919050565b61055d81610543565b8114610567575f5ffd5b50565b5f8135905061057881610554565b92915050565b5f602082840312156105935761059261053f565b5b5f6105a08482850161056a565b91505092915050565b5f8115159050919050565b6105bd816105a9565b82525050565b5f6020820190506105d65f8301846105b4565b92915050565b6105e581610543565b82525050565b5f6020820190506105fe5f8301846105dc565b92915050565b5f82825260208201905092915050565b7f416c7265616479206120436974697a656e206f6620417263616e6100000000005f82015250565b5f610648601b83610604565b915061065382610614565b602082019050919050565b5f6020820190508181035f8301526106758161063c565b9050919050565b6106858161050e565b811461068f575f5ffd5b50565b5f815190506106a08161067c565b92915050565b5f602082840312156106bb576106ba61053f565b5b5f6106c884828501610692565b91505092915050565b7f496e73756666696369656e7420434300000000000000000000000000000000005f82015250565b5f610705600f83610604565b9150610710826106d1565b602082019050919050565b5f6020820190508181035f830152610732816106f9565b9050919050565b5f60608201905061074c5f8301866105dc565b61075960208301856105dc565b6107666040830184610517565b949350505050565b610777816105a9565b8114610781575f5ffd5b50565b5f815190506107928161076e565b92915050565b5f602082840312156107ad576107ac61053f565b5b5f6107ba84828501610784565b91505092915050565b7f4275726e204661696c65640000000000000000000000000000000000000000005f82015250565b5f6107f7600b83610604565b9150610802826107c3565b602082019050919050565b5f6020820190508181035f830152610824816107eb565b9050919050565b7f4e487b71000000000000000000000000000000000000000000000000000000005f52601160045260245ffd5b5f6108628261050e565b91507fffffffffffffffffffffffffffffffffffffffffffffffffffffffffffffffff82036108945761089361082b565b5b60018201905091905056fea26469706673582212203f4f3a31336c6bbf2038d66a7078527f95980e3413242e61f24a56258dc5bea564736f6c63430008210033","linkReferences":{}},"methodIdentifiers":{"BURN_ADDRESS()":"fccc2813","SACRIFICE_AMOUNT()":"f873575d","ccToken()":"5c7995b4","isCitizen(address)":"f3caad03","performSacrifice()":"3f788a88","totalCitizens()":"bd7b09e4"},"id":0}