{"abi":[{"type":"constructor","inputs":[{"name":"_ccToken","type":"address","internalType":"address"},{"name":"_passport","type":"address","internalType":"address"}],"stateMutability":"nonpayable"},{"type":"function","name":"ccToken","inputs":[],"outputs":[{"name":"","type":"address","internalType":"contract IERC20"}],"stateMutability":"view"},{"type":"function","name":"executePrivacySwap","inputs":[{"name":"_amount","type":"uint256","internalType":"uint256"}],"outputs":[],"stateMutability":"nonpayable"},{"type":"function","name":"owner","inputs":[],"outputs":[{"name":"","type":"address","internalType":"address"}],"stateMutability":"view"},{"type":"function","name":"passport","inputs":[],"outputs":[{"name":"","type":"address","internalType":"contract IArcanaPassport"}],"stateMutability":"view"},{"type":"event","name":"PrivacySwap","inputs":[{"name":"user","type":"address","indexed":true,"internalType":"address"},{"name":"amount","type":"uint256","indexed":false,"internalType":"uint256"},{"name":"timestamp","type":"uint256","indexed":false,"internalType":"uint256"}],"anonymous":false}],"bytecode":{"object":"0x608060405234801561000f575f5ffd5b5060405161098c38038061098c83398181016040528101906100319190610155565b335f5f6101000a81548173ffffffffffffffffffffffffffffffffffffffff021916908373ffffffffffffffffffffffffffffffffffffffff1602179055508160015f6101000a81548173ffffffffffffffffffffffffffffffffffffffff021916908373ffffffffffffffffffffffffffffffffffffffff1602179055508060025f6101000a81548173ffffffffffffffffffffffffffffffffffffffff021916908373ffffffffffffffffffffffffffffffffffffffff1602179055505050610193565b5f5ffd5b5f73ffffffffffffffffffffffffffffffffffffffff82169050919050565b5f610124826100fb565b9050919050565b6101348161011a565b811461013e575f5ffd5b50565b5f8151905061014f8161012b565b92915050565b5f5f6040838503121561016b5761016a6100f7565b5b5f61017885828601610141565b925050602061018985828601610141565b9150509250929050565b6107ec806101a05f395ff3fe608060405234801561000f575f5ffd5b506004361061004a575f3560e01c806301f546931461004e57806317ba9c4d1461006a5780635c7995b4146100885780638da5cb5b146100a6575b5f5ffd5b6100686004803603810190610063919061044c565b6100c4565b005b6100726103a7565b60405161007f91906104f1565b60405180910390f35b6100906103cc565b60405161009d919061052a565b60405180910390f35b6100ae6103f1565b6040516100bb9190610563565b60405180910390f35b60025f9054906101000a900473ffffffffffffffffffffffffffffffffffffffff1673ffffffffffffffffffffffffffffffffffffffff1663f3caad03336040518263ffffffff1660e01b815260040161011e9190610563565b602060405180830381865afa158015610139573d5f5f3e3d5ffd5b505050506040513d601f19601f8201168201806040525081019061015d91906105b1565b61019c576040517f08c379a000000000000000000000000000000000000000000000000000000000815260040161019390610636565b60405180910390fd5b60015f9054906101000a900473ffffffffffffffffffffffffffffffffffffffff1673ffffffffffffffffffffffffffffffffffffffff166323b872dd3330846040518463ffffffff1660e01b81526004016101fa93929190610663565b6020604051808303815f875af1158015610216573d5f5f3e3d5ffd5b505050506040513d601f19601f8201168201806040525081019061023a91906105b1565b610279576040517f08c379a0000000000000000000000000000000000000000000000000000000008152600401610270906106e2565b60405180910390fd5b3373ffffffffffffffffffffffffffffffffffffffff167f440fd229041621ac28ae5db549a6e981d4ea8896a1641ba89e74b43db855d8e882426040516102c1929190610700565b60405180910390a260015f9054906101000a900473ffffffffffffffffffffffffffffffffffffffff1673ffffffffffffffffffffffffffffffffffffffff1663a9059cbb33836040518363ffffffff1660e01b8152600401610325929190610727565b6020604051808303815f875af1158015610341573d5f5f3e3d5ffd5b505050506040513d601f19601f8201168201806040525081019061036591906105b1565b6103a4576040517f08c379a000000000000000000000000000000000000000000000000000000000815260040161039b90610798565b60405180910390fd5b50565b60025f9054906101000a900473ffffffffffffffffffffffffffffffffffffffff1681565b60015f9054906101000a900473ffffffffffffffffffffffffffffffffffffffff1681565b5f5f9054906101000a900473ffffffffffffffffffffffffffffffffffffffff1681565b5f5ffd5b5f819050919050565b61042b81610419565b8114610435575f5ffd5b50565b5f8135905061044681610422565b92915050565b5f6020828403121561046157610460610415565b5b5f61046e84828501610438565b91505092915050565b5f73ffffffffffffffffffffffffffffffffffffffff82169050919050565b5f819050919050565b5f6104b96104b46104af84610477565b610496565b610477565b9050919050565b5f6104ca8261049f565b9050919050565b5f6104db826104c0565b9050919050565b6104eb816104d1565b82525050565b5f6020820190506105045f8301846104e2565b92915050565b5f610514826104c0565b9050919050565b6105248161050a565b82525050565b5f60208201905061053d5f83018461051b565b92915050565b5f61054d82610477565b9050919050565b61055d81610543565b82525050565b5f6020820190506105765f830184610554565b92915050565b5f8115159050919050565b6105908161057c565b811461059a575f5ffd5b50565b5f815190506105ab81610587565b92915050565b5f602082840312156105c6576105c5610415565b5b5f6105d38482850161059d565b91505092915050565b5f82825260208201905092915050565b7f5361756e613a204d757374206265206120436974697a656e00000000000000005f82015250565b5f6106206018836105dc565b915061062b826105ec565b602082019050919050565b5f6020820190508181035f83015261064d81610614565b9050919050565b61065d81610419565b82525050565b5f6060820190506106765f830186610554565b6106836020830185610554565b6106906040830184610654565b949350505050565b7f5472616e73666572206661696c656400000000000000000000000000000000005f82015250565b5f6106cc600f836105dc565b91506106d782610698565b602082019050919050565b5f6020820190508181035f8301526106f9816106c0565b9050919050565b5f6040820190506107135f830185610654565b6107206020830184610654565b9392505050565b5f60408201905061073a5f830185610554565b6107476020830184610654565b9392505050565b7f52657475726e207472616e73666572206661696c6564000000000000000000005f82015250565b5f6107826016836105dc565b915061078d8261074e565b602082019050919050565b5f6020820190508181035f8301526107af81610776565b905091905056fea26469706673582212205692352ec84326a288d9488542f7bbb39b9df107237a1026a41b28106671199564736f6c63430008210033","linkReferences":{}},"methodIdentifiers":{"ccToken()":"5c7995b4","executePrivacySwap(uint256)":"01f54693","owner()":"8da5cb5b","passport()":"17ba9c4d"},"id":4}