{"abi":[{"type":"constructor","inputs":[],"stateMutability":"nonpayable"},{"type":"function","name":"executeSwap","inputs":[{"name":"token","type":"address","internalType":"address"},{"name":"to","type":"address","internalType":"address"},{"name":"amount","type":"uint256","internalType":"uint256"}],"outputs":[],"stateMutability":"nonpayable"},{"type":"function","name":"isAuth","inputs":[{"name":"","type":"address","internalType":"address"}],"outputs":[{"name":"","type":"bool","internalType":"bool"}],"stateMutability":"view"},{"type":"function","name":"owner","inputs":[],"outputs":[{"name":"","type":"address","internalType":"address"}],"stateMutability":"view"},{"type":"function","name":"principal","inputs":[],"outputs":[{"name":"","type":"address","internalType":"address"}],"stateMutability":"view"},{"type":"function","name":"renounceOwnership","inputs":[],"outputs":[],"stateMutability":"nonpayable"},{"type":"function","name":"setPrincipal","inputs":[{"name":"_principal","type":"address","internalType":"address"}],"outputs":[],"stateMutability":"nonpayable"},{"type":"function","name":"transferOwnership","inputs":[{"name":"newOwner","type":"address","internalType":"address"}],"outputs":[],"stateMutability":"nonpayable"},{"type":"event","name":"OwnershipTransferred","inputs":[{"name":"previousOwner","type":"address","indexed":true,"internalType":"address"},{"name":"newOwner","type":"address","indexed":true,"internalType":"address"}],"anonymous":false},{"type":"event","name":"PrincipalSet","inputs":[{"name":"newPrincipal","type":"address","indexed":true,"internalType":"address"}],"anonymous":false},{"type":"error","name":"OwnableInvalidOwner","inputs":[{"name":"owner","type":"address","internalType":"address"}]},{"type":"error","name":"OwnableUnauthorizedAccount","inputs":[{"name":"account","type":"address","internalType":"address"}]}],"bytecode":{"object":"0x608060405234801561000f575f5ffd5b50335f73ffffffffffffffffffffffffffffffffffffffff168173ffffffffffffffffffffffffffffffffffffffff1603610081575f6040517f1e4fbdf70000000000000000000000000000000000000000000000000000000081526004016100789190610196565b60405180910390fd5b6100908161009660201b60201c565b506101af565b5f5f5f9054906101000a900473ffffffffffffffffffffffffffffffffffffffff169050815f5f6101000a81548173ffffffffffffffffffffffffffffffffffffffff021916908373ffffffffffffffffffffffffffffffffffffffff1602179055508173ffffffffffffffffffffffffffffffffffffffff168173ffffffffffffffffffffffffffffffffffffffff167f8be0079c531659141344cd1fd0a4f28419497f9722a3daafe3b4186f6b6457e060405160405180910390a35050565b5f73ffffffffffffffffffffffffffffffffffffffff82169050919050565b5f61018082610157565b9050919050565b61019081610176565b82525050565b5f6020820190506101a95f830184610187565b92915050565b610868806101bc5f395ff3fe608060405234801561000f575f5ffd5b506004361061007b575f3560e01c8063847fd5bf11610059578063847fd5bf146100d55780638da5cb5b146100f1578063ba5d30781461010f578063f2fde38b1461012d5761007b565b80630da3a0291461007f5780632520e7ff1461009b578063715018a6146100cb575b5f5ffd5b61009960048036038101906100949190610659565b610149565b005b6100b560048036038101906100b091906106a9565b610296565b6040516100c291906106ee565b60405180910390f35b6100d36102b3565b005b6100ef60048036038101906100ea91906106a9565b6102c6565b005b6100f96103a9565b6040516101069190610716565b60405180910390f35b6101176103d0565b6040516101249190610716565b60405180910390f35b610147600480360381019061014291906106a9565b6103f5565b005b6101516103a9565b73ffffffffffffffffffffffffffffffffffffffff163373ffffffffffffffffffffffffffffffffffffffff1614806101d6575060015f9054906101000a900473ffffffffffffffffffffffffffffffffffffffff1673ffffffffffffffffffffffffffffffffffffffff163373ffffffffffffffffffffffffffffffffffffffff16145b610215576040517f08c379a000000000000000000000000000000000000000000000000000000000815260040161020c90610789565b60405180910390fd5b8273ffffffffffffffffffffffffffffffffffffffff1663a9059cbb83836040518363ffffffff1660e01b81526004016102509291906107b6565b6020604051808303815f875af115801561026c573d5f5f3e3d5ffd5b505050506040513d601f19601f820116820180604052508101906102909190610807565b50505050565b6002602052805f5260405f205f915054906101000a900460ff1681565b6102bb610479565b6102c45f610500565b565b6102ce610479565b8060015f6101000a81548173ffffffffffffffffffffffffffffffffffffffff021916908373ffffffffffffffffffffffffffffffffffffffff160217905550600160025f8373ffffffffffffffffffffffffffffffffffffffff1673ffffffffffffffffffffffffffffffffffffffff1681526020019081526020015f205f6101000a81548160ff0219169083151502179055508073ffffffffffffffffffffffffffffffffffffffff167fc9da20b12df9be2cc3562bd24b27ef3a20f9f2a1df2c83892d4f39fd10544df660405160405180910390a250565b5f5f5f9054906101000a900473ffffffffffffffffffffffffffffffffffffffff16905090565b60015f9054906101000a900473ffffffffffffffffffffffffffffffffffffffff1681565b6103fd610479565b5f73ffffffffffffffffffffffffffffffffffffffff168173ffffffffffffffffffffffffffffffffffffffff160361046d575f6040517f1e4fbdf70000000000000000000000000000000000000000000000000000000081526004016104649190610716565b60405180910390fd5b61047681610500565b50565b6104816105c1565b73ffffffffffffffffffffffffffffffffffffffff1661049f6103a9565b73ffffffffffffffffffffffffffffffffffffffff16146104fe576104c26105c1565b6040517f118cdaa70000000000000000000000000000000000000000000000000000000081526004016104f59190610716565b60405180910390fd5b565b5f5f5f9054906101000a900473ffffffffffffffffffffffffffffffffffffffff169050815f5f6101000a81548173ffffffffffffffffffffffffffffffffffffffff021916908373ffffffffffffffffffffffffffffffffffffffff1602179055508173ffffffffffffffffffffffffffffffffffffffff168173ffffffffffffffffffffffffffffffffffffffff167f8be0079c531659141344cd1fd0a4f28419497f9722a3daafe3b4186f6b6457e060405160405180910390a35050565b5f33905090565b5f5ffd5b5f73ffffffffffffffffffffffffffffffffffffffff82169050919050565b5f6105f5826105cc565b9050919050565b610605816105eb565b811461060f575f5ffd5b50565b5f81359050610620816105fc565b92915050565b5f819050919050565b61063881610626565b8114610642575f5ffd5b50565b5f813590506106538161062f565b92915050565b5f5f5f606084860312156106705761066f6105c8565b5b5f61067d86828701610612565b935050602061068e86828701610612565b925050604061069f86828701610645565b9150509250925092565b5f602082840312156106be576106bd6105c8565b5b5f6106cb84828501610612565b91505092915050565b5f8115159050919050565b6106e8816106d4565b82525050565b5f6020820190506107015f8301846106df565b92915050565b610710816105eb565b82525050565b5f6020820190506107295f830184610707565b92915050565b5f82825260208201905092915050565b7f4e6f7420617574686f72697a65640000000000000000000000000000000000005f82015250565b5f610773600e8361072f565b915061077e8261073f565b602082019050919050565b5f6020820190508181035f8301526107a081610767565b9050919050565b6107b081610626565b82525050565b5f6040820190506107c95f830185610707565b6107d660208301846107a7565b9392505050565b6107e6816106d4565b81146107f0575f5ffd5b50565b5f81519050610801816107dd565b92915050565b5f6020828403121561081c5761081b6105c8565b5b5f610829848285016107f3565b9150509291505056fea264697066735822122014c29827049bfd99104c22276e5d9bcb8474ec79b5b393239a8743ad4e90ec2d64736f6c63430008210033","linkReferences":{}},"methodIdentifiers":{"executeSwap(address,address,uint256)":"0da3a029","isAuth(address)":"2520e7ff","owner()":"8da5cb5b","principal()":"ba5d3078","renounceOwnership()":"715018a6","setPrincipal(address)":"847fd5bf","transferOwnership(address)":"f2fde38b"},"id":22}